{
  "contractName": "Lottery",
  "abi": [
    {
      "inputs": [],
      "stateMutability": "nonpayable",
      "type": "constructor"
    },
    {
      "anonymous": false,
      "inputs": [
        {
          "indexed": true,
          "internalType": "address",
          "name": "user",
          "type": "address"
        },
        {
          "indexed": false,
          "internalType": "uint256",
          "name": "tokenId",
          "type": "uint256"
        }
      ],
      "name": "Buy",
      "type": "event"
    },
    {
      "anonymous": false,
      "inputs": [
        {
          "indexed": true,
          "internalType": "address",
          "name": "user",
          "type": "address"
        },
        {
          "indexed": false,
          "internalType": "uint256",
          "name": "tokenid",
          "type": "uint256"
        },
        {
          "indexed": false,
          "internalType": "uint256",
          "name": "amount",
          "type": "uint256"
        }
      ],
      "name": "Claim",
      "type": "event"
    },
    {
      "anonymous": false,
      "inputs": [
        {
          "indexed": true,
          "internalType": "address",
          "name": "user",
          "type": "address"
        },
        {
          "indexed": false,
          "internalType": "uint256",
          "name": "amount",
          "type": "uint256"
        }
      ],
      "name": "DevWithdraw",
      "type": "event"
    },
    {
      "anonymous": false,
      "inputs": [
        {
          "indexed": true,
          "internalType": "uint256",
          "name": "issueIndex",
          "type": "uint256"
        },
        {
          "indexed": false,
          "internalType": "uint8[4]",
          "name": "winningNumbers",
          "type": "uint8[4]"
        }
      ],
      "name": "Drawing",
      "type": "event"
    },
    {
      "anonymous": false,
      "inputs": [
        {
          "indexed": true,
          "internalType": "address",
          "name": "user",
          "type": "address"
        },
        {
          "indexed": false,
          "internalType": "uint256",
          "name": "amount",
          "type": "uint256"
        }
      ],
      "name": "MultiBuy",
      "type": "event"
    },
    {
      "anonymous": false,
      "inputs": [
        {
          "indexed": true,
          "internalType": "address",
          "name": "user",
          "type": "address"
        },
        {
          "indexed": false,
          "internalType": "uint256",
          "name": "amount",
          "type": "uint256"
        }
      ],
      "name": "MultiClaim",
      "type": "event"
    },
    {
      "anonymous": false,
      "inputs": [
        {
          "indexed": true,
          "internalType": "address",
          "name": "previousOwner",
          "type": "address"
        },
        {
          "indexed": true,
          "internalType": "address",
          "name": "newOwner",
          "type": "address"
        }
      ],
      "name": "OwnershipTransferred",
      "type": "event"
    },
    {
      "anonymous": false,
      "inputs": [
        {
          "indexed": true,
          "internalType": "uint256",
          "name": "issueIndex",
          "type": "uint256"
        }
      ],
      "name": "Reset",
      "type": "event"
    },
    {
      "inputs": [],
      "name": "adminAddress",
      "outputs": [
        {
          "internalType": "address",
          "name": "",
          "type": "address"
        }
      ],
      "stateMutability": "view",
      "type": "function",
      "constant": true
    },
    {
      "inputs": [
        {
          "internalType": "uint256",
          "name": "",
          "type": "uint256"
        }
      ],
      "name": "allocation",
      "outputs": [
        {
          "internalType": "uint8",
          "name": "",
          "type": "uint8"
        }
      ],
      "stateMutability": "view",
      "type": "function",
      "constant": true
    },
    {
      "inputs": [],
      "name": "drawingPhase",
      "outputs": [
        {
          "internalType": "bool",
          "name": "",
          "type": "bool"
        }
      ],
      "stateMutability": "view",
      "type": "function",
      "constant": true
    },
    {
      "inputs": [
        {
          "internalType": "uint256",
          "name": "",
          "type": "uint256"
        },
        {
          "internalType": "uint256",
          "name": "",
          "type": "uint256"
        }
      ],
      "name": "historyAmount",
      "outputs": [
        {
          "internalType": "uint256",
          "name": "",
          "type": "uint256"
        }
      ],
      "stateMutability": "view",
      "type": "function",
      "constant": true
    },
    {
      "inputs": [
        {
          "internalType": "uint256",
          "name": "",
          "type": "uint256"
        },
        {
          "internalType": "uint256",
          "name": "",
          "type": "uint256"
        }
      ],
      "name": "historyNumbers",
      "outputs": [
        {
          "internalType": "uint8",
          "name": "",
          "type": "uint8"
        }
      ],
      "stateMutability": "view",
      "type": "function",
      "constant": true
    },
    {
      "inputs": [],
      "name": "issueIndex",
      "outputs": [
        {
          "internalType": "uint256",
          "name": "",
          "type": "uint256"
        }
      ],
      "stateMutability": "view",
      "type": "function",
      "constant": true
    },
    {
      "inputs": [],
      "name": "lastTimestamp",
      "outputs": [
        {
          "internalType": "uint256",
          "name": "",
          "type": "uint256"
        }
      ],
      "stateMutability": "view",
      "type": "function",
      "constant": true
    },
    {
      "inputs": [
        {
          "internalType": "uint256",
          "name": "",
          "type": "uint256"
        },
        {
          "internalType": "uint256",
          "name": "",
          "type": "uint256"
        }
      ],
      "name": "lotteryInfo",
      "outputs": [
        {
          "internalType": "uint256",
          "name": "",
          "type": "uint256"
        }
      ],
      "stateMutability": "view",
      "type": "function",
      "constant": true
    },
    {
      "inputs": [],
      "name": "lotteryNFT",
      "outputs": [
        {
          "internalType": "contract LotteryNFT",
          "name": "",
          "type": "address"
        }
      ],
      "stateMutability": "view",
      "type": "function",
      "constant": true
    },
    {
      "inputs": [],
      "name": "maxNumber",
      "outputs": [
        {
          "internalType": "uint8",
          "name": "",
          "type": "uint8"
        }
      ],
      "stateMutability": "view",
      "type": "function",
      "constant": true
    },
    {
      "inputs": [],
      "name": "minPrice",
      "outputs": [
        {
          "internalType": "uint256",
          "name": "",
          "type": "uint256"
        }
      ],
      "stateMutability": "view",
      "type": "function",
      "constant": true
    },
    {
      "inputs": [],
      "name": "owner",
      "outputs": [
        {
          "internalType": "address",
          "name": "",
          "type": "address"
        }
      ],
      "stateMutability": "view",
      "type": "function",
      "constant": true
    },
    {
      "inputs": [],
      "name": "pbear",
      "outputs": [
        {
          "internalType": "contract IERC20",
          "name": "",
          "type": "address"
        }
      ],
      "stateMutability": "view",
      "type": "function",
      "constant": true
    },
    {
      "inputs": [],
      "name": "renounceOwnership",
      "outputs": [],
      "stateMutability": "nonpayable",
      "type": "function"
    },
    {
      "inputs": [],
      "name": "totalAddresses",
      "outputs": [
        {
          "internalType": "uint256",
          "name": "",
          "type": "uint256"
        }
      ],
      "stateMutability": "view",
      "type": "function",
      "constant": true
    },
    {
      "inputs": [],
      "name": "totalAmount",
      "outputs": [
        {
          "internalType": "uint256",
          "name": "",
          "type": "uint256"
        }
      ],
      "stateMutability": "view",
      "type": "function",
      "constant": true
    },
    {
      "inputs": [
        {
          "internalType": "address",
          "name": "newOwner",
          "type": "address"
        }
      ],
      "name": "transferOwnership",
      "outputs": [],
      "stateMutability": "nonpayable",
      "type": "function"
    },
    {
      "inputs": [
        {
          "internalType": "uint256",
          "name": "",
          "type": "uint256"
        },
        {
          "internalType": "uint64",
          "name": "",
          "type": "uint64"
        }
      ],
      "name": "userBuyAmountSum",
      "outputs": [
        {
          "internalType": "uint256",
          "name": "",
          "type": "uint256"
        }
      ],
      "stateMutability": "view",
      "type": "function",
      "constant": true
    },
    {
      "inputs": [
        {
          "internalType": "address",
          "name": "",
          "type": "address"
        },
        {
          "internalType": "uint256",
          "name": "",
          "type": "uint256"
        }
      ],
      "name": "userInfo",
      "outputs": [
        {
          "internalType": "uint256",
          "name": "",
          "type": "uint256"
        }
      ],
      "stateMutability": "view",
      "type": "function",
      "constant": true
    },
    {
      "inputs": [
        {
          "internalType": "uint256",
          "name": "",
          "type": "uint256"
        }
      ],
      "name": "winningNumbers",
      "outputs": [
        {
          "internalType": "uint8",
          "name": "",
          "type": "uint8"
        }
      ],
      "stateMutability": "view",
      "type": "function",
      "constant": true
    },
    {
      "inputs": [
        {
          "internalType": "contract IERC20",
          "name": "_pbear",
          "type": "address"
        },
        {
          "internalType": "contract LotteryNFT",
          "name": "_lottery",
          "type": "address"
        },
        {
          "internalType": "uint256",
          "name": "_minPrice",
          "type": "uint256"
        },
        {
          "internalType": "uint8",
          "name": "_maxNumber",
          "type": "uint8"
        },
        {
          "internalType": "address",
          "name": "_owner",
          "type": "address"
        },
        {
          "internalType": "address",
          "name": "_adminAddress",
          "type": "address"
        }
      ],
      "name": "initialize",
      "outputs": [],
      "stateMutability": "nonpayable",
      "type": "function"
    },
    {
      "inputs": [],
      "name": "drawed",
      "outputs": [
        {
          "internalType": "bool",
          "name": "",
          "type": "bool"
        }
      ],
      "stateMutability": "view",
      "type": "function",
      "constant": true
    },
    {
      "inputs": [],
      "name": "reset",
      "outputs": [],
      "stateMutability": "nonpayable",
      "type": "function"
    },
    {
      "inputs": [],
      "name": "enterDrawingPhase",
      "outputs": [],
      "stateMutability": "nonpayable",
      "type": "function"
    },
    {
      "inputs": [
        {
          "internalType": "uint256",
          "name": "_externalRandomNumber",
          "type": "uint256"
        }
      ],
      "name": "drawing",
      "outputs": [],
      "stateMutability": "nonpayable",
      "type": "function"
    },
    {
      "inputs": [
        {
          "internalType": "uint256",
          "name": "_price",
          "type": "uint256"
        },
        {
          "internalType": "uint8[4]",
          "name": "_numbers",
          "type": "uint8[4]"
        }
      ],
      "name": "buy",
      "outputs": [],
      "stateMutability": "nonpayable",
      "type": "function"
    },
    {
      "inputs": [
        {
          "internalType": "uint256",
          "name": "_price",
          "type": "uint256"
        },
        {
          "internalType": "uint8[4][]",
          "name": "_numbers",
          "type": "uint8[4][]"
        }
      ],
      "name": "multiBuy",
      "outputs": [],
      "stateMutability": "nonpayable",
      "type": "function"
    },
    {
      "inputs": [
        {
          "internalType": "uint256",
          "name": "_tokenId",
          "type": "uint256"
        }
      ],
      "name": "claimReward",
      "outputs": [],
      "stateMutability": "nonpayable",
      "type": "function"
    },
    {
      "inputs": [
        {
          "internalType": "uint256[]",
          "name": "_tickets",
          "type": "uint256[]"
        }
      ],
      "name": "multiClaim",
      "outputs": [],
      "stateMutability": "nonpayable",
      "type": "function"
    },
    {
      "inputs": [
        {
          "internalType": "uint8[4]",
          "name": "number",
          "type": "uint8[4]"
        }
      ],
      "name": "generateNumberIndexKey",
      "outputs": [
        {
          "internalType": "uint64[11]",
          "name": "",
          "type": "uint64[11]"
        }
      ],
      "stateMutability": "pure",
      "type": "function",
      "constant": true
    },
    {
      "inputs": [
        {
          "internalType": "uint256",
          "name": "_issueIndex",
          "type": "uint256"
        },
        {
          "internalType": "uint256",
          "name": "_matchingNumber",
          "type": "uint256"
        }
      ],
      "name": "getMatchingRewardAmount",
      "outputs": [
        {
          "internalType": "uint256",
          "name": "",
          "type": "uint256"
        }
      ],
      "stateMutability": "view",
      "type": "function",
      "constant": true
    },
    {
      "inputs": [
        {
          "internalType": "uint256",
          "name": "_issueIndex",
          "type": "uint256"
        }
      ],
      "name": "getTotalRewards",
      "outputs": [
        {
          "internalType": "uint256",
          "name": "",
          "type": "uint256"
        }
      ],
      "stateMutability": "view",
      "type": "function",
      "constant": true
    },
    {
      "inputs": [
        {
          "internalType": "uint256",
          "name": "_tokenId",
          "type": "uint256"
        }
      ],
      "name": "getRewardView",
      "outputs": [
        {
          "internalType": "uint256",
          "name": "",
          "type": "uint256"
        }
      ],
      "stateMutability": "view",
      "type": "function",
      "constant": true
    },
    {
      "inputs": [
        {
          "internalType": "address",
          "name": "_adminAddress",
          "type": "address"
        }
      ],
      "name": "setAdmin",
      "outputs": [],
      "stateMutability": "nonpayable",
      "type": "function"
    },
    {
      "inputs": [
        {
          "internalType": "uint256",
          "name": "_amount",
          "type": "uint256"
        }
      ],
      "name": "adminWithdraw",
      "outputs": [],
      "stateMutability": "nonpayable",
      "type": "function"
    },
    {
      "inputs": [
        {
          "internalType": "uint256",
          "name": "_price",
          "type": "uint256"
        }
      ],
      "name": "setMinPrice",
      "outputs": [],
      "stateMutability": "nonpayable",
      "type": "function"
    },
    {
      "inputs": [
        {
          "internalType": "uint8",
          "name": "_maxNumber",
          "type": "uint8"
        }
      ],
      "name": "setMaxNumber",
      "outputs": [],
      "stateMutability": "nonpayable",
      "type": "function"
    },
    {
      "inputs": [
        {
          "internalType": "uint8",
          "name": "_allcation1",
          "type": "uint8"
        },
        {
          "internalType": "uint8",
          "name": "_allcation2",
          "type": "uint8"
        },
        {
          "internalType": "uint8",
          "name": "_allcation3",
          "type": "uint8"
        }
      ],
      "name": "setAllocation",
      "outputs": [],
      "stateMutability": "nonpayable",
      "type": "function"
    }
  ],
  "bytecode": "0x6000600b819055600c819055600d819055610100604052608081815260a082905260c082905260e0919091526200003b90601190600462000050565b503480156200004957600080fd5b5062000105565b600183019183908215620000d85791602002820160005b83821115620000a757835183826101000a81548160ff021916908360ff160217905550926020019260010160208160000104928301926001030262000067565b8015620000d65782816101000a81549060ff0219169055600101602081600001049283019260010302620000a7565b505b50620000e6929150620000ea565b5090565b5b80821115620000e657805460ff19168155600101620000eb565b61401780620001156000396000f3fe608060405234801561001057600080fd5b50600436106102925760003560e01c80636a28f82811610160578063c39f49c0116100d8578063e13454161161008c578063e8adfbc711610071578063e8adfbc7146104ed578063f2fde38b146104f5578063fc6f94681461050857610292565b8063e1345416146104dd578063e45be8eb146104e557610292565b8063d1f7dbcf116100bd578063d1f7dbcf146104af578063d411b0fa146104c2578063d826f88f146104d557610292565b8063c39f49c014610494578063cfad5277146104a757610292565b8063850bad941161012f5780638da5cb5b116101145780638da5cb5b14610466578063a42206c91461046e578063ae169a501461048157610292565b8063850bad941461043357806385dcdf1b1461044657610292565b80636a28f828146103fd578063704b6c0214610405578063715018a6146104185780637c5b4a371461042057610292565b8063324a55621161020e578063552164ee116101c25780635c17623a116101a75780635c17623a146103c45780635ea8cd12146103d75780636575243f146103ea57610292565b8063552164ee1461039e57806359bcbd68146103b157610292565b8063438209f5116101f3578063438209f5146103635780634e45f095146103785780634ed73d281461038b57610292565b8063324a55621461033b5780633a4f69991461034e57610292565b80631a39d8ef1161026557806321ce919d1161024a57806321ce919d146103025780632bdff851146103155780632f506b201461032857610292565b80631a39d8ef146102f25780631ff68866146102fa57610292565b80631145dae51461029757806311e42065146102b557806314c20d57146102ca57806319d8ac61146102dd575b600080fd5b61029f610510565b6040516102ac919061370f565b60405180910390f35b6102c86102c336600461348f565b61052c565b005b6102c86102d83660046135df565b610777565b6102e5610b18565b6040516102ac9190613f15565b6102e5610b1e565b6102c8610b24565b6102e5610310366004613324565b610be1565b6102c8610323366004613537565b610c0f565b6102e561033636600461362c565b610fe8565b6102c8610349366004613667565b611005565b6103566110a2565b6040516102ac9190613f2c565b61036b6110c3565b6040516102ac919061386d565b610356610386366004613507565b6110cc565b6102c861039936600461334f565b6110f3565b6102e56103ac366004613507565b611427565b6103566103bf36600461360b565b6114b5565b6102c86103d2366004613683565b6114eb565b6102c86103e5366004613507565b6115b3565b6102e56103f836600461360b565b611609565b6102e5611622565b6102c86104133660046132ec565b611628565b6102c86116c0565b6102c861042e366004613507565b611780565b610356610441366004613507565b611846565b6104596104543660046133e4565b611853565b6040516102ac9190613807565b61029f6119db565b6102c861047c366004613507565b6119f7565b6102c861048f366004613507565b611e0f565b6102e56104a236600461360b565b6120ff565b6102e5612118565b6102e56104bd36600461360b565b61211e565b6102e56104d0366004613507565b612150565b6102c86124dd565b61036b6126b1565b6102e56126bc565b61029f6126c2565b6102c86105033660046132ec565b6126de565b61029f612809565b60025473ffffffffffffffffffffffffffffffffffffffff1681565b6000547501000000000000000000000000000000000000000000900460ff16806105595750610559612825565b8061057f575060005474010000000000000000000000000000000000000000900460ff16155b6105be576040517f08c379a00000000000000000000000000000000000000000000000000000000081526004016105b590613c48565b60405180910390fd5b6000547501000000000000000000000000000000000000000000900460ff1615801561066057600080547fffffffffffffffffffffff00ffffffffffffffffffffffffffffffffffffffff7fffffffffffffffffffff00ffffffffffffffffffffffffffffffffffffffffff90911675010000000000000000000000000000000000000000001716740100000000000000000000000000000000000000001790555b600280547fffffffffffffffffffffffff000000000000000000000000000000000000000090811673ffffffffffffffffffffffffffffffffffffffff8a8116919091179092556003805482168984161781556005889055600480547fffffffffffffffffffffff00ffffffffffffffffffffffffffffffffffffffff167401000000000000000000000000000000000000000060ff8a16021790921692851692909217905542600e5560408051606081018252603c815260146020820152600a9181019190915261073591600191906130f3565b5061073f83612836565b801561076e57600080547fffffffffffffffffffff00ffffffffffffffffffffffffffffffffffffffffff1690555b50505050505050565b61077f6126b1565b156107b6576040517f08c379a00000000000000000000000000000000000000000000000000000000081526004016105b590613d39565b60105460ff16156107f3576040517f08c379a00000000000000000000000000000000000000000000000000000000081526004016105b590613c11565b60055482101561082f576040517f08c379a00000000000000000000000000000000000000000000000000000000081526004016105b590613ca5565b60005b60048110156108af576004805474010000000000000000000000000000000000000000900460ff169083908390811061086757fe5b602002015160ff1611156108a7576040517f08c379a00000000000000000000000000000000000000000000000000000000081526004016105b590613968565b600101610832565b50600354600b546040517f37391c0000000000000000000000000000000000000000000000000000000000815260009273ffffffffffffffffffffffffffffffffffffffff16916337391c009161090e91339187918991600401613730565b602060405180830381600087803b15801561092857600080fd5b505af115801561093c573d6000803e3d6000fd5b505050506040513d601f19601f82011682018060405250810190610960919061351f565b600b546000908152600760209081526040808320805460018101825590845282842001849055338352600a9091529020549091506109a257600c805460010190555b336000908152600a6020908152604082208054600181018255908352912001819055600d546109d190846128a6565b600d5542600e556109e0613186565b6109e983611853565b905060005b600b811015610a9e57610a548560096000600b54815260200190815260200160002060008585600b8110610a1e57fe5b602002015167ffffffffffffffff1667ffffffffffffffff168152602001908152602001600020546128a690919063ffffffff16565b600b8054600090815260096020526040812091859085908110610a7357fe5b6020908102919091015167ffffffffffffffff168252810191909152604001600020556001016109ee565b50600254610ac49073ffffffffffffffffffffffffffffffffffffffff163330876128ec565b3373ffffffffffffffffffffffffffffffffffffffff167fe3d4187f6ca4248660cc0ac8b8056515bac4a8132be2eca31d6d0cc170722a7e83604051610b0a9190613f15565b60405180910390a250505050565b600e5481565b600d5481565b60045473ffffffffffffffffffffffffffffffffffffffff163314610b75576040517f08c379a00000000000000000000000000000000000000000000000000000000081526004016105b590613da5565b610b7d6126b1565b15610bb4576040517f08c379a00000000000000000000000000000000000000000000000000000000081526004016105b590613ede565b601080547fffffffffffffffffffffffffffffffffffffffffffffffffffffffffffffff00166001179055565b600a6020528160005260406000208181548110610bfa57fe5b90600052602060002001600091509150505481565b610c176126b1565b15610c4e576040517f08c379a00000000000000000000000000000000000000000000000000000000081526004016105b590613d39565b60105460ff1615610c8b576040517f08c379a00000000000000000000000000000000000000000000000000000000081526004016105b590613c11565b600554821015610cc7576040517f08c379a00000000000000000000000000000000000000000000000000000000081526004016105b590613ca5565b6000805b8251811015610f6f5760005b6004811015610d8c57600460149054906101000a900460ff1660ff16848381518110610cff57fe5b60200260200101518260048110610d1257fe5b602002015160ff1611158015610d4e57506000848381518110610d3157fe5b60200260200101518260048110610d4457fe5b602002015160ff16115b610d84576040517f08c379a00000000000000000000000000000000000000000000000000000000081526004016105b590613968565b600101610cd7565b50600354835160009173ffffffffffffffffffffffffffffffffffffffff16906337391c00903390879086908110610dc057fe5b602002602001015188600b546040518563ffffffff1660e01b8152600401610deb9493929190613730565b602060405180830381600087803b158015610e0557600080fd5b505af1158015610e19573d6000803e3d6000fd5b505050506040513d601f19601f82011682018060405250810190610e3d919061351f565b600b546000908152600760209081526040808320805460018101825590845282842001849055338352600a909152902054909150610e7f57600c805460010190555b336000908152600a6020908152604082208054600181018255908352912001819055600d54610eae90866128a6565b600d5542600e55610ebf83866128a6565b9250610ec9613186565b610ee5858481518110610ed857fe5b6020026020010151611853565b905060005b600b811015610f6457610f1a8760096000600b54815260200190815260200160002060008585600b8110610a1e57fe5b600b8054600090815260096020526040812091859085908110610f3957fe5b6020908102919091015167ffffffffffffffff16825281019190915260400160002055600101610eea565b505050600101610ccb565b50600254610f959073ffffffffffffffffffffffffffffffffffffffff163330846128ec565b3373ffffffffffffffffffffffffffffffffffffffff167f96c35ad1cc1743f26cb87980c38042de8082358ec6d171a7986d6e11dddfe85782604051610fdb9190613f15565b60405180910390a2505050565b600960209081526000928352604080842090915290825290205481565b60045473ffffffffffffffffffffffffffffffffffffffff163314611056576040517f08c379a00000000000000000000000000000000000000000000000000000000081526004016105b590613da5565b6004805460ff90921674010000000000000000000000000000000000000000027fffffffffffffffffffffff00ffffffffffffffffffffffffffffffffffffffff909216919091179055565b60045474010000000000000000000000000000000000000000900460ff1681565b60105460ff1681565b600f81600481106110d957fe5b60209182820401919006915054906101000a900460ff1681565b6000805b825181101561131f57600354835173ffffffffffffffffffffffffffffffffffffffff90911690636352211e9085908490811061113057fe5b60200260200101516040518263ffffffff1660e01b81526004016111549190613f15565b60206040518083038186803b15801561116c57600080fd5b505afa158015611180573d6000803e3d6000fd5b505050506040513d601f19601f820116820180604052508101906111a49190613308565b73ffffffffffffffffffffffffffffffffffffffff163373ffffffffffffffffffffffffffffffffffffffff1614611208576040517f08c379a00000000000000000000000000000000000000000000000000000000081526004016105b590613b35565b600354835173ffffffffffffffffffffffffffffffffffffffff909116906336dbd2f99085908490811061123857fe5b60200260200101516040518263ffffffff1660e01b815260040161125c9190613f15565b60206040518083038186803b15801561127457600080fd5b505afa158015611288573d6000803e3d6000fd5b505050506040513d601f19601f820116820180604052508101906112ac919061346f565b156112e3576040517f08c379a00000000000000000000000000000000000000000000000000000000081526004016105b590613bda565b60006113018483815181106112f457fe5b6020026020010151612150565b905080156113165761131381846128a6565b92505b506001016110f7565b506003546040517f7431035500000000000000000000000000000000000000000000000000000000815273ffffffffffffffffffffffffffffffffffffffff909116906374310355906113769085906004016137c3565b600060405180830381600087803b15801561139057600080fd5b505af11580156113a4573d6000803e3d6000fd5b5050505060008111156113d5576002546113d59073ffffffffffffffffffffffffffffffffffffffff16338361298f565b3373ffffffffffffffffffffffffffffffffffffffff167f6606374655494f5c0e2d6f392656e9777afd9ac5f61527d1bcad50b7e918a03e8260405161141b9190613f15565b60405180910390a25050565b6000600b54821115611465576040517f08c379a00000000000000000000000000000000000000000000000000000000081526004016105b59061399f565b61146d6126b1565b15801561147b5750600b5482145b156114895750600d546114b0565b600082815260086020526040812080549091906114a257fe5b906000526020600020015490505b919050565b600660205281600052604060002081600481106114ce57fe5b602081049091015460ff601f9092166101000a9004169150829050565b60045473ffffffffffffffffffffffffffffffffffffffff16331461153c576040517f08c379a00000000000000000000000000000000000000000000000000000000081526004016105b590613da5565b6064818385010160ff161061157d576040517f08c379a00000000000000000000000000000000000000000000000000000000081526004016105b590613ddc565b6040805160608101825260ff808616825284811660208301528316918101919091526115ad9060019060036130f3565b50505050565b60045473ffffffffffffffffffffffffffffffffffffffff163314611604576040517f08c379a00000000000000000000000000000000000000000000000000000000081526004016105b590613da5565b600555565b60076020528160005260406000208181548110610bfa57fe5b600b5481565b60005473ffffffffffffffffffffffffffffffffffffffff163314611679576040517f08c379a00000000000000000000000000000000000000000000000000000000081526004016105b590613d70565b600480547fffffffffffffffffffffffff00000000000000000000000000000000000000001673ffffffffffffffffffffffffffffffffffffffff92909216919091179055565b60005473ffffffffffffffffffffffffffffffffffffffff163314611711576040517f08c379a00000000000000000000000000000000000000000000000000000000081526004016105b590613d70565b6000805460405173ffffffffffffffffffffffffffffffffffffffff909116907f8be0079c531659141344cd1fd0a4f28419497f9722a3daafe3b4186f6b6457e0908390a3600080547fffffffffffffffffffffffff0000000000000000000000000000000000000000169055565b60045473ffffffffffffffffffffffffffffffffffffffff1633146117d1576040517f08c379a00000000000000000000000000000000000000000000000000000000081526004016105b590613da5565b6002546117f59073ffffffffffffffffffffffffffffffffffffffff16338361298f565b3373ffffffffffffffffffffffffffffffffffffffff167f050d1c64cc22ce461b9bc14f6b73852566da02b03c155242bc63169d1fec42aa8260405161183b9190613f15565b60405180910390a250565b600181600381106110d957fe5b61185b613186565b6118636131a5565b825160ff908116825260208085015182169083015260408085015182169083015260608085015190911690820152611899613186565b6060828101805160408086018051602080890180518a5162010000948502640100000000928302660100000000000090920291909101019096016501000200030090810167ffffffffffffffff9081168b52855183518d51908702908a02010163010002009081018216948c0194909452885183518d51908702908a02010163010003009081018216978c0197909752885186518d51908702908a020101630200030090810182169a8c019a909a5288518651845190870299029890980190970101861660808a015280518a51840201610100908101871660a08b015284518b5185020161020001871660c08b015287519a518402909a0161030001861660e08a015283518151840201909101851698880198909852845197518102909701909101821661012086015291519151909402010190911661014082015292915050565b60005473ffffffffffffffffffffffffffffffffffffffff1690565b60045473ffffffffffffffffffffffffffffffffffffffff163314611a48576040517f08c379a00000000000000000000000000000000000000000000000000000000081526004016105b590613da5565b611a506126b1565b15611a87576040517f08c379a00000000000000000000000000000000000000000000000000000000081526004016105b5906138fa565b60105460ff16611ac3576040517f08c379a00000000000000000000000000000000000000000000000000000000081526004016105b590613ba3565b600454600090819074010000000000000000000000000000000000000000900460ff16437fffffffffffffffffffffffffffffffffffffffffffffffffffffffffffffffff0140825b600a811015611b2957611b20600b54611427565b50600101611b0c565b5060005a905081600c548288604051602001611b48949392919061388e565b604080517fffffffffffffffffffffffffffffffffffffffffffffffffffffffffffffffe0818403018152908290528051602091820120600f80547fffffffffffffffffffffffffffffffffffffffffffffffffffffffffffffff001687830660010160ff811691909117909155600d549198509650611bce92859285918b910161388e565b604080517fffffffffffffffffffffffffffffffffffffffffffffffffffffffffffffffe0818403018152908290528051602091820120600f805460ff888406600101908116610100027fffffffffffffffffffffffffffffffffffffffffffffffffffffffffffff00ff90921691909117909155600e549198509650611c5b92859285918b910161388e565b604080518083037fffffffffffffffffffffffffffffffffffffffffffffffffffffffffffffffe0018152908290528051602091820120600f805460ff60018985060190811662010000027fffffffffffffffffffffffffffffffffffffffffffffffffffffffffff00ffff909216919091179091559097509550611ce691849184918a9101613878565b604080518083037fffffffffffffffffffffffffffffffffffffffffffffffffffffffffffffffe00181529181528151602092830120600f805460ff6001898506019081166301000000027fffffffffffffffffffffffffffffffffffffffffffffffffffffffff00ffffff909216919091178255600b546000908152600690955292909320909750909550611d7d9160046131c3565b50611d866129b3565b600b546000908152600860205260409020611da29160046131f6565b50601080547fffffffffffffffffffffffffffffffffffffffffffffffffffffffffffffff00169055600b546040517fa13e935b188993737b3009d62bd916dcbe9e82d8236d75981eeadf26a1460d3d90611dff90600f9061383a565b60405180910390a2505050505050565b6003546040517f6352211e00000000000000000000000000000000000000000000000000000000815273ffffffffffffffffffffffffffffffffffffffff90911690636352211e90611e65908490600401613f15565b60206040518083038186803b158015611e7d57600080fd5b505afa158015611e91573d6000803e3d6000fd5b505050506040513d601f19601f82011682018060405250810190611eb59190613308565b73ffffffffffffffffffffffffffffffffffffffff163373ffffffffffffffffffffffffffffffffffffffff1614611f19576040517f08c379a00000000000000000000000000000000000000000000000000000000081526004016105b590613b35565b6003546040517f36dbd2f900000000000000000000000000000000000000000000000000000000815273ffffffffffffffffffffffffffffffffffffffff909116906336dbd2f990611f6f908490600401613f15565b60206040518083038186803b158015611f8757600080fd5b505afa158015611f9b573d6000803e3d6000fd5b505050506040513d601f19601f82011682018060405250810190611fbf919061346f565b15611ff6576040517f08c379a00000000000000000000000000000000000000000000000000000000081526004016105b590613bda565b600061200182612150565b6003546040517fae169a5000000000000000000000000000000000000000000000000000000000815291925073ffffffffffffffffffffffffffffffffffffffff169063ae169a5090612058908590600401613f15565b600060405180830381600087803b15801561207257600080fd5b505af1158015612086573d6000803e3d6000fd5b5050505060008111156120b7576002546120b79073ffffffffffffffffffffffffffffffffffffffff16338361298f565b3373ffffffffffffffffffffffffffffffffffffffff167f34fcbac0073d7c3d388e51312faf357774904998eeb8fca628b9e6f65ee1cbf7838360405161141b929190613f1e565b60086020528160005260406000208181548110610bfa57fe5b600c5481565b60008281526008602052604081208054600584900390811061213c57fe5b906000526020600020015490505b92915050565b6003546040517f1bf1e00f000000000000000000000000000000000000000000000000000000008152600091829173ffffffffffffffffffffffffffffffffffffffff90911690631bf1e00f906121ab908690600401613f15565b60206040518083038186803b1580156121c357600080fd5b505afa1580156121d7573d6000803e3d6000fd5b505050506040513d601f19601f820116820180604052508101906121fb919061351f565b90506122056131a5565b6003546040517f5f8e26a700000000000000000000000000000000000000000000000000000000815273ffffffffffffffffffffffffffffffffffffffff90911690635f8e26a79061225b908790600401613f15565b60806040518083038186803b15801561227357600080fd5b505afa158015612287573d6000803e3d6000fd5b505050506040513d601f19601f820116820180604052508101906122ab91906133ff565b90506122b56131a5565b600083815260066020526040808220815160808101928390529290916004918390855b825461010083900a900460ff168152602060019283018181049485019490930390920291018084116122d8579050505050505090508060006004811061231a57fe5b602002015160ff16612358576040517f08c379a00000000000000000000000000000000000000000000000000000000081526004016105b590613931565b6000805b60048110156123a25783816004811061237157fe5b602002015160ff1683826004811061238557fe5b602002015160ff16141561239a578160010191505b60010161235c565b50600060018211156124c3576003546040517ff7a0c0ca00000000000000000000000000000000000000000000000000000000815260009173ffffffffffffffffffffffffffffffffffffffff169063f7a0c0ca90612405908b90600401613f15565b60206040518083038186803b15801561241d57600080fd5b505afa158015612431573d6000803e3d6000fd5b505050506040513d601f19601f82011682018060405250810190612455919061351f565b9050600061249c60646124966001876004036003811061247157fe5b602081049091015460ff601f9092166101000a9004166124908b611427565b90612c1c565b90612c70565b90506124be816124906124af8a8861211e565b6124968664e8d4a51000612c1c565b925050505b6124d28164e8d4a51000612c70565b979650505050505050565b60045473ffffffffffffffffffffffffffffffffffffffff16331461252e576040517f08c379a00000000000000000000000000000000000000000000000000000000081526004016105b590613da5565b6125366126b1565b61256c576040517f08c379a00000000000000000000000000000000000000000000000000000000081526004016105b590613e4a565b42600e556000600c819055600d55600f80547fffffffffffffffffffffffffffffffffffffffffffffffffffffffff00000000169055601080547fffffffffffffffffffffffffffffffffffffffffffffffffffffffffffffff00169055600b8054600181019091556125e090600461211e565b61268357600154600b54600091612629916064916124969160ff90911690612490907fffffffffffffffffffffffffffffffffffffffffffffffffffffffffffffffff01611427565b604080516080810191829052919250612681918391601190600490826000855b825461010083900a900460ff168152602060019283018181049485019490930390920291018084116126495790505050505050612cbc565b505b600b546040517f01c3cbb0d62726ab09d163873ebf9aed99dd8dc08e57bc938f458132fd178cf690600090a2565b600f5460ff16151590565b60055481565b60035473ffffffffffffffffffffffffffffffffffffffff1681565b60005473ffffffffffffffffffffffffffffffffffffffff16331461272f576040517f08c379a00000000000000000000000000000000000000000000000000000000081526004016105b590613d70565b73ffffffffffffffffffffffffffffffffffffffff811661277c576040517f08c379a00000000000000000000000000000000000000000000000000000000081526004016105b5906139d6565b6000805460405173ffffffffffffffffffffffffffffffffffffffff808516939216917f8be0079c531659141344cd1fd0a4f28419497f9722a3daafe3b4186f6b6457e091a3600080547fffffffffffffffffffffffff00000000000000000000000000000000000000001673ffffffffffffffffffffffffffffffffffffffff92909216919091179055565b60045473ffffffffffffffffffffffffffffffffffffffff1681565b600061283030612e99565b15905090565b600080547fffffffffffffffffffffffff00000000000000000000000000000000000000001673ffffffffffffffffffffffffffffffffffffffff831690811782556040519091907f8be0079c531659141344cd1fd0a4f28419497f9722a3daafe3b4186f6b6457e0908290a350565b6000828201838110156128e5576040517f08c379a00000000000000000000000000000000000000000000000000000000081526004016105b590613a33565b9392505050565b6115ad846323b872dd60e01b85858560405160240161290d9392919061376c565b604080517fffffffffffffffffffffffffffffffffffffffffffffffffffffffffffffffe08184030181529190526020810180517bffffffffffffffffffffffffffffffffffffffffffffffffffffffff167fffffffff0000000000000000000000000000000000000000000000000000000090931692909217909152612e9f565b6129ae8363a9059cbb60e01b848460405160240161290d92919061379d565b505050565b6129bb6131a5565b6129c3613186565b604080516080810191829052612a1691600f90600490826000855b825461010083900a900460ff168152602060019283018181049485019490930390920291018084116129de5790505050505050611853565b600b546000818152600960208181526040808420865167ffffffffffffffff9081168652818452828620548787528585528885015190911686528184529185205495855292909152939450612aa0918560025b602002015167ffffffffffffffff1667ffffffffffffffff16815260200190815260200160002054826128a690919063ffffffff16565b600b546000908152600960205260408120919250612ac19190856003612a69565b600b546000908152600960205260408120919250612ae29190856004612a69565b90506000612afb612af4846004612c1c565b8390612f55565b600b54600081815260096020818152604080842060a08b015167ffffffffffffffff168552808352908420549484529190529293509091612b3e91876006612a69565b600b546000908152600960205260408120919250612b5f9190876007612a69565b600b546000908152600960205260408120919250612b809190876008612a69565b600b5460009081526009602081905260408220929350612ba39291908890612a69565b600b546000908152600960205260408120919250612bc4919087600a612a69565b90506000612bf1612bd6856003612c1c565b612beb612be4886006612c1c565b85906128a6565b90612f55565b60408051608081018252600d5481526020810197909752860193909352505060608301525091505090565b600082612c2b5750600061214a565b82820282848281612c3857fe5b04146128e5576040517f08c379a00000000000000000000000000000000000000000000000000000000081526004016105b590613cdc565b6000808211612cab576040517f08c379a00000000000000000000000000000000000000000000000000000000081526004016105b590613b6c565b818381612cb457fe5b049392505050565b612cc46126b1565b15612cfb576040517f08c379a00000000000000000000000000000000000000000000000000000000081526004016105b590613d39565b60005b6004811015612d7b576004805474010000000000000000000000000000000000000000900460ff1690839083908110612d3357fe5b602002015160ff161115612d73576040517f08c379a00000000000000000000000000000000000000000000000000000000081526004016105b590613a6a565b600101612cfe565b50600354600b546040517f37391c0000000000000000000000000000000000000000000000000000000000815260009273ffffffffffffffffffffffffffffffffffffffff16916337391c0091612dda91309187918991600401613730565b602060405180830381600087803b158015612df457600080fd5b505af1158015612e08573d6000803e3d6000fd5b505050506040513d601f19601f82011682018060405250810190612e2c919061351f565b600b54600090815260076020908152604082208054600181018255908352912001819055600d54909150612e6090846128a6565b600d5542600e5560405130907fe3d4187f6ca4248660cc0ac8b8056515bac4a8132be2eca31d6d0cc170722a7e90610fdb908490613f15565b3b151590565b6060612f01826040518060400160405280602081526020017f5361666545524332303a206c6f772d6c6576656c2063616c6c206661696c65648152508573ffffffffffffffffffffffffffffffffffffffff16612f979092919063ffffffff16565b8051909150156129ae5780806020019051810190612f1f919061346f565b6129ae576040517f08c379a00000000000000000000000000000000000000000000000000000000081526004016105b590613e81565b600082821115612f91576040517f08c379a00000000000000000000000000000000000000000000000000000000081526004016105b590613aa1565b50900390565b6060612fa68484600085612fae565b949350505050565b606082471015612fea576040517f08c379a00000000000000000000000000000000000000000000000000000000081526004016105b590613ad8565b612ff385612e99565b613029576040517f08c379a00000000000000000000000000000000000000000000000000000000081526004016105b590613e13565b600060608673ffffffffffffffffffffffffffffffffffffffff16858760405161305391906136f3565b60006040518083038185875af1925050503d8060008114613090576040519150601f19603f3d011682016040523d82523d6000602084013e613095565b606091505b50915091506124d2828286606083156130af5750816128e5565b8251156130bf5782518084602001fd5b816040517f08c379a00000000000000000000000000000000000000000000000000000000081526004016105b591906138a9565b6001830191839082156131765791602002820160005b8382111561314757835183826101000a81548160ff021916908360ff1602179055509260200192600101602081600001049283019260010302613109565b80156131745782816101000a81549060ff0219169055600101602081600001049283019260010302613147565b505b5061318292915061323d565b5090565b604051806101600160405280600b906020820280368337509192915050565b60405180608001604052806004906020820280368337509192915050565b6001830191839082156131765791601f016020900482015b828111156131765782548255916001019190600101906131db565b828054828255906000526020600020908101928215613231579160200282015b82811115613231578251825591602001919060010190613216565b50613182929150613274565b5b808211156131825780547fffffffffffffffffffffffffffffffffffffffffffffffffffffffffffffff0016815560010161323e565b5b808211156131825760008155600101613275565b600082601f830112613299578081fd5b6132a36080613f3a565b90508082846080850111156132b757600080fd5b60005b60048110156132e35781356132ce81613fd2565b835260209283019291909101906001016132ba565b50505092915050565b6000602082840312156132fd578081fd5b81356128e581613fad565b600060208284031215613319578081fd5b81516128e581613fad565b60008060408385031215613336578081fd5b823561334181613fad565b946020939093013593505050565b60006020808385031215613361578182fd5b823567ffffffffffffffff811115613377578283fd5b8301601f81018513613387578283fd5b803561339a61339582613f61565b613f3a565b81815283810190838501858402850186018910156133b6578687fd5b8694505b838510156133d85780358352600194909401939185019185016133ba565b50979650505050505050565b6000608082840312156133f5578081fd5b6128e58383613289565b600060808284031215613410578081fd5b82601f83011261341e578081fd5b6134286080613f3a565b808385608086011115613439578384fd5b835b600481101561346457815161344f81613fd2565b8452602093840193919091019060010161343b565b509095945050505050565b600060208284031215613480578081fd5b815180151581146128e5578182fd5b60008060008060008060c087890312156134a7578182fd5b86356134b281613fad565b955060208701356134c281613fad565b94506040870135935060608701356134d981613fd2565b925060808701356134e981613fad565b915060a08701356134f981613fad565b809150509295509295509295565b600060208284031215613518578081fd5b5035919050565b600060208284031215613530578081fd5b5051919050565b60008060408385031215613549578182fd5b8235915060208084013567ffffffffffffffff811115613567578283fd5b8401601f81018613613577578283fd5b803561358561339582613f61565b818152838101908385016080808502860187018b10156135a3578788fd5b8795505b848610156135cf576135b98b83613289565b84526001959095019492860192908101906135a7565b5096999098509650505050505050565b60008060a083850312156135f1578182fd5b823591506136028460208501613289565b90509250929050565b6000806040838503121561361d578182fd5b50508035926020909101359150565b6000806040838503121561363e578182fd5b82359150602083013567ffffffffffffffff8116811461365c578182fd5b809150509250929050565b600060208284031215613678578081fd5b81356128e581613fd2565b600080600060608486031215613697578081fd5b83356136a281613fd2565b925060208401356136b281613fd2565b915060408401356136c281613fd2565b809150509250925092565b8060005b60048110156115ad57815160ff168452602093840193909101906001016136d1565b60008251613705818460208701613f81565b9190910192915050565b73ffffffffffffffffffffffffffffffffffffffff91909116815260200190565b73ffffffffffffffffffffffffffffffffffffffff8516815260e0810161375a60208301866136cd565b60a082019390935260c0015292915050565b73ffffffffffffffffffffffffffffffffffffffff9384168152919092166020820152604081019190915260600190565b73ffffffffffffffffffffffffffffffffffffffff929092168252602082015260400190565b6020808252825182820181905260009190848201906040850190845b818110156137fb578351835292840192918401916001016137df565b50909695505050505050565b6101608101818360005b600b8110156132e357815167ffffffffffffffff16835260209283019290910190600101613811565b905460ff8082168352600882901c81166020840152601082901c8116604084015260189190911c16606082015260800190565b901515815260200190565b9283526020830191909152604082015260600190565b93845260208401929092526040830152606082015260800190565b60006020825282518060208401526138c8816040850160208701613f81565b601f017fffffffffffffffffffffffffffffffffffffffffffffffffffffffffffffffe0169190910160400192915050565b60208082526006908201527f72657365743f0000000000000000000000000000000000000000000000000000604082015260600190565b6020808252600a908201527f6e6f742064726177656400000000000000000000000000000000000000000000604082015260600190565b60208082526013908201527f657863656564206e756d6265722073636f706500000000000000000000000000604082015260600190565b60208082526019908201527f5f6973737565496e646578203c3d206973737565496e64657800000000000000604082015260600190565b60208082526026908201527f4f776e61626c653a206e6577206f776e657220697320746865207a65726f206160408201527f6464726573730000000000000000000000000000000000000000000000000000606082015260800190565b6020808252601b908201527f536166654d6174683a206164646974696f6e206f766572666c6f770000000000604082015260600190565b60208082526012908201527f65786365656420746865206d6178696d756d0000000000000000000000000000604082015260600190565b6020808252601e908201527f536166654d6174683a207375627472616374696f6e206f766572666c6f770000604082015260600190565b60208082526026908201527f416464726573733a20696e73756666696369656e742062616c616e636520666f60408201527f722063616c6c0000000000000000000000000000000000000000000000000000606082015260800190565b6020808252600e908201527f6e6f742066726f6d206f776e6572000000000000000000000000000000000000604082015260600190565b6020808252601a908201527f536166654d6174683a206469766973696f6e206279207a65726f000000000000604082015260600190565b60208082526019908201527f656e7465722064726177696e6720706861736520666972737400000000000000604082015260600190565b60208082526007908201527f636c61696d656400000000000000000000000000000000000000000000000000604082015260600190565b60208082526018908201527f64726177696e672c2063616e206e6f7420627579206e6f770000000000000000604082015260600190565b6020808252602e908201527f496e697469616c697a61626c653a20636f6e747261637420697320616c72656160408201527f647920696e697469616c697a6564000000000000000000000000000000000000606082015260800190565b60208082526019908201527f7072696365206d7573742061626f7665206d696e507269636500000000000000604082015260600190565b60208082526021908201527f536166654d6174683a206d756c7469706c69636174696f6e206f766572666c6f60408201527f7700000000000000000000000000000000000000000000000000000000000000606082015260800190565b60208082526017908201527f6472617765642c2063616e206e6f7420627579206e6f77000000000000000000604082015260600190565b6020808252818101527f4f776e61626c653a2063616c6c6572206973206e6f7420746865206f776e6572604082015260600190565b6020808252600b908201527f61646d696e3a207775743f000000000000000000000000000000000000000000604082015260600190565b6020808252600a908201527f6578636565642031303000000000000000000000000000000000000000000000604082015260600190565b6020808252601d908201527f416464726573733a2063616c6c20746f206e6f6e2d636f6e7472616374000000604082015260600190565b60208082526007908201527f6472617765643f00000000000000000000000000000000000000000000000000604082015260600190565b6020808252602a908201527f5361666545524332303a204552433230206f7065726174696f6e20646964206e60408201527f6f74207375636365656400000000000000000000000000000000000000000000606082015260800190565b60208082526006908201527f6472617765640000000000000000000000000000000000000000000000000000604082015260600190565b90815260200190565b918252602082015260400190565b60ff91909116815260200190565b60405181810167ffffffffffffffff81118282101715613f5957600080fd5b604052919050565b600067ffffffffffffffff821115613f77578081fd5b5060209081020190565b60005b83811015613f9c578181015183820152602001613f84565b838111156115ad5750506000910152565b73ffffffffffffffffffffffffffffffffffffffff81168114613fcf57600080fd5b50565b60ff81168114613fcf57600080fdfea2646970667358221220c377fd190bbe018c0ffbdfabdef6a4b5716c1fedb8457f0b9dfb5a0ad555143b64736f6c634300060c0033",
  "immutableReferences": {},
  "source": "pragma solidity 0.6.12;\npragma experimental ABIEncoderV2;\n\nimport \"./LotteryNFT.sol\";\nimport \"./LotteryOwnable.sol\";\nimport \"@openzeppelin/contracts/token/ERC20/IERC20.sol\";\nimport \"@openzeppelin/contracts/token/ERC20/SafeERC20.sol\";\nimport \"@openzeppelin/contracts/math/SafeMath.sol\";\nimport \"@openzeppelin/contracts/proxy/Initializable.sol\";\n\n// import \"@nomiclabs/buidler/console.sol\";\n\n// 4 numbers\ncontract Lottery is LotteryOwnable, Initializable {\n    using SafeMath for uint256;\n    using SafeMath for uint8;\n    using SafeERC20 for IERC20;\n\n    uint8 constant keyLengthForEachBuy = 11;\n    // Allocation for first/sencond/third reward\n    uint8[3] public allocation;\n    // The TOKEN to buy lottery\n    IERC20 public pbear;\n    // The Lottery NFT for tickets\n    LotteryNFT public lotteryNFT;\n    // adminAddress\n    address public adminAddress;\n    // maxNumber\n    uint8 public maxNumber;\n    // minPrice, if decimal is not 18, please reset it\n    uint256 public minPrice;\n\n    // =================================\n\n    // issueId => winningNumbers[numbers]\n    mapping (uint256 => uint8[4]) public historyNumbers;\n    // issueId => [tokenId]\n    mapping (uint256 => uint256[]) public lotteryInfo;\n    // issueId => [totalAmount, firstMatchAmount, secondMatchingAmount, thirdMatchingAmount]\n    mapping (uint256 => uint256[]) public historyAmount;\n    // issueId => trickyNumber => buyAmountSum\n    mapping (uint256 => mapping(uint64 => uint256)) public userBuyAmountSum;\n    // address => [tokenId]\n    mapping (address => uint256[]) public userInfo;\n\n    uint256 public issueIndex = 0;\n    uint256 public totalAddresses = 0;\n    uint256 public totalAmount = 0;\n    uint256 public lastTimestamp;\n\n    uint8[4] public winningNumbers;\n\n    // default false\n    bool public drawingPhase;\n\n    // =================================\n\n    event Buy(address indexed user, uint256 tokenId);\n    event Drawing(uint256 indexed issueIndex, uint8[4] winningNumbers);\n    event Claim(address indexed user, uint256 tokenid, uint256 amount);\n    event DevWithdraw(address indexed user, uint256 amount);\n    event Reset(uint256 indexed issueIndex);\n    event MultiClaim(address indexed user, uint256 amount);\n    event MultiBuy(address indexed user, uint256 amount);\n\n    constructor() public {\n    }\n\n    function initialize(\n        IERC20 _pbear,\n        LotteryNFT _lottery,\n        uint256 _minPrice,\n        uint8 _maxNumber,\n        address _owner,\n        address _adminAddress\n    ) public initializer {\n        pbear = _pbear;\n        lotteryNFT = _lottery;\n        minPrice = _minPrice;\n        maxNumber = _maxNumber;\n        adminAddress = _adminAddress;\n        lastTimestamp = block.timestamp;\n        allocation = [60, 20, 10];\n        initOwner(_owner);\n    }\n\n    uint8[4] private nullTicket = [0,0,0,0];\n\n    modifier onlyAdmin() {\n        require(msg.sender == adminAddress, \"admin: wut?\");\n        _;\n    }\n\n    modifier inDrawingPhase() {\n        require(!drawed(), 'drawed, can not buy now');\n        require(!drawingPhase, 'drawing, can not buy now');\n        _;\n    }\n\n    function drawed() public view returns(bool) {\n        return winningNumbers[0] != 0;\n    }\n\n    function reset() external onlyAdmin {\n        require(drawed(), \"drawed?\");\n        lastTimestamp = block.timestamp;\n        totalAddresses = 0;\n        totalAmount = 0;\n        winningNumbers[0]=0;\n        winningNumbers[1]=0;\n        winningNumbers[2]=0;\n        winningNumbers[3]=0;\n        drawingPhase = false;\n        issueIndex = issueIndex +1;\n        if(getMatchingRewardAmount(issueIndex-1, 4) == 0) {\n            uint256 amount = getTotalRewards(issueIndex-1).mul(allocation[0]).div(100);\n            internalBuy(amount, nullTicket);\n        }\n        emit Reset(issueIndex);\n    }\n\n    function enterDrawingPhase() external onlyAdmin {\n        require(!drawed(), 'drawed');\n        drawingPhase = true;\n    }\n\n    // add externalRandomNumber to prevent node validators exploiting\n    function drawing(uint256 _externalRandomNumber) external onlyAdmin {\n        require(!drawed(), \"reset?\");\n        require(drawingPhase, \"enter drawing phase first\");\n        bytes32 _structHash;\n        uint256 _randomNumber;\n        uint8 _maxNumber = maxNumber;\n        bytes32 _blockhash = blockhash(block.number-1);\n\n        // waste some gas fee here\n        for (uint i = 0; i < 10; i++) {\n            getTotalRewards(issueIndex);\n        }\n        uint256 gasleft = gasleft();\n\n        // 1\n        _structHash = keccak256(\n            abi.encode(\n                _blockhash,\n                totalAddresses,\n                gasleft,\n                _externalRandomNumber\n            )\n        );\n        _randomNumber  = uint256(_structHash);\n        assembly {_randomNumber := add(mod(_randomNumber, _maxNumber),1)}\n        winningNumbers[0]=uint8(_randomNumber);\n\n        // 2\n        _structHash = keccak256(\n            abi.encode(\n                _blockhash,\n                totalAmount,\n                gasleft,\n                _externalRandomNumber\n            )\n        );\n        _randomNumber  = uint256(_structHash);\n        assembly {_randomNumber := add(mod(_randomNumber, _maxNumber),1)}\n        winningNumbers[1]=uint8(_randomNumber);\n\n        // 3\n        _structHash = keccak256(\n            abi.encode(\n                _blockhash,\n                lastTimestamp,\n                gasleft,\n                _externalRandomNumber\n            )\n        );\n        _randomNumber  = uint256(_structHash);\n        assembly {_randomNumber := add(mod(_randomNumber, _maxNumber),1)}\n        winningNumbers[2]=uint8(_randomNumber);\n\n        // 4\n        _structHash = keccak256(\n            abi.encode(\n                _blockhash,\n                gasleft,\n                _externalRandomNumber\n            )\n        );\n        _randomNumber  = uint256(_structHash);\n        assembly {_randomNumber := add(mod(_randomNumber, _maxNumber),1)}\n        winningNumbers[3]=uint8(_randomNumber);\n        historyNumbers[issueIndex] = winningNumbers;\n        historyAmount[issueIndex] = calculateMatchingRewardAmount();\n        drawingPhase = false;\n        emit Drawing(issueIndex, winningNumbers);\n    }\n\n    function internalBuy(uint256 _price, uint8[4] memory _numbers) internal {\n        require (!drawed(), 'drawed, can not buy now');\n        for (uint i = 0; i < 4; i++) {\n            require (_numbers[i] <= maxNumber, 'exceed the maximum');\n        }\n        uint256 tokenId = lotteryNFT.newLotteryItem(address(this), _numbers, _price, issueIndex);\n        lotteryInfo[issueIndex].push(tokenId);\n        totalAmount = totalAmount.add(_price);\n        lastTimestamp = block.timestamp;\n        emit Buy(address(this), tokenId);\n\n    }\n\n    function buy(uint256 _price, uint8[4] memory _numbers) external inDrawingPhase {\n        require (_price >= minPrice, 'price must above minPrice');\n        for (uint i = 0; i < 4; i++) {\n            require (_numbers[i] <= maxNumber, 'exceed number scope');\n        }\n        uint256 tokenId = lotteryNFT.newLotteryItem(msg.sender, _numbers, _price, issueIndex);\n        lotteryInfo[issueIndex].push(tokenId);\n        if (userInfo[msg.sender].length == 0) {\n            totalAddresses = totalAddresses + 1;\n        }\n        userInfo[msg.sender].push(tokenId);\n        totalAmount = totalAmount.add(_price);\n        lastTimestamp = block.timestamp;\n        uint64[keyLengthForEachBuy] memory userNumberIndex = generateNumberIndexKey(_numbers);\n        for (uint i = 0; i < keyLengthForEachBuy; i++) {\n            userBuyAmountSum[issueIndex][userNumberIndex[i]]=userBuyAmountSum[issueIndex][userNumberIndex[i]].add(_price);\n        }\n        pbear.safeTransferFrom(address(msg.sender), address(this), _price);\n        emit Buy(msg.sender, tokenId);\n    }\n\n    function  multiBuy(uint256 _price, uint8[4][] memory _numbers) external inDrawingPhase {\n        require (_price >= minPrice, 'price must above minPrice');\n        uint256 totalPrice  = 0;\n        for (uint i = 0; i < _numbers.length; i++) {\n            for (uint j = 0; j < 4; j++) {\n                require (_numbers[i][j] <= maxNumber && _numbers[i][j] > 0, 'exceed number scope');\n            }\n            uint256 tokenId = lotteryNFT.newLotteryItem(msg.sender, _numbers[i], _price, issueIndex);\n            lotteryInfo[issueIndex].push(tokenId);\n            if (userInfo[msg.sender].length == 0) {\n                totalAddresses = totalAddresses + 1;\n            }\n            userInfo[msg.sender].push(tokenId);\n            totalAmount = totalAmount.add(_price);\n            lastTimestamp = block.timestamp;\n            totalPrice = totalPrice.add(_price);\n            uint64[keyLengthForEachBuy] memory numberIndexKey = generateNumberIndexKey(_numbers[i]);\n            for (uint k = 0; k < keyLengthForEachBuy; k++) {\n                userBuyAmountSum[issueIndex][numberIndexKey[k]]=userBuyAmountSum[issueIndex][numberIndexKey[k]].add(_price);\n            }\n        }\n        pbear.safeTransferFrom(address(msg.sender), address(this), totalPrice);\n        emit MultiBuy(msg.sender, totalPrice);\n    }\n\n    function claimReward(uint256 _tokenId) external {\n        require(msg.sender == lotteryNFT.ownerOf(_tokenId), \"not from owner\");\n        require (!lotteryNFT.getClaimStatus(_tokenId), \"claimed\");\n        uint256 reward = getRewardView(_tokenId);\n        lotteryNFT.claimReward(_tokenId);\n        if(reward>0) {\n            pbear.safeTransfer(address(msg.sender), reward);\n        }\n        emit Claim(msg.sender, _tokenId, reward);\n    }\n\n    function  multiClaim(uint256[] memory _tickets) external {\n        uint256 totalReward = 0;\n        for (uint i = 0; i < _tickets.length; i++) {\n            require (msg.sender == lotteryNFT.ownerOf(_tickets[i]), \"not from owner\");\n            require (!lotteryNFT.getClaimStatus(_tickets[i]), \"claimed\");\n            uint256 reward = getRewardView(_tickets[i]);\n            if(reward>0) {\n                totalReward = reward.add(totalReward);\n            }\n        }\n        lotteryNFT.multiClaimReward(_tickets);\n        if(totalReward>0) {\n            pbear.safeTransfer(address(msg.sender), totalReward);\n        }\n        emit MultiClaim(msg.sender, totalReward);\n    }\n\n    function generateNumberIndexKey(uint8[4] memory number) public pure returns (uint64[keyLengthForEachBuy] memory) {\n        uint64[4] memory tempNumber;\n        tempNumber[0]=uint64(number[0]);\n        tempNumber[1]=uint64(number[1]);\n        tempNumber[2]=uint64(number[2]);\n        tempNumber[3]=uint64(number[3]);\n\n        uint64[keyLengthForEachBuy] memory result;\n        result[0] = tempNumber[0]*256*256*256*256*256*256 + 1*256*256*256*256*256 + tempNumber[1]*256*256*256*256 + 2*256*256*256 + tempNumber[2]*256*256 + 3*256 + tempNumber[3];\n\n        result[1] = tempNumber[0]*256*256*256*256 + 1*256*256*256 + tempNumber[1]*256*256 + 2*256+ tempNumber[2];\n        result[2] = tempNumber[0]*256*256*256*256 + 1*256*256*256 + tempNumber[1]*256*256 + 3*256+ tempNumber[3];\n        result[3] = tempNumber[0]*256*256*256*256 + 2*256*256*256 + tempNumber[2]*256*256 + 3*256 + tempNumber[3];\n        result[4] = 1*256*256*256*256*256 + tempNumber[1]*256*256*256*256 + 2*256*256*256 + tempNumber[2]*256*256 + 3*256 + tempNumber[3];\n\n        result[5] = tempNumber[0]*256*256 + 1*256+ tempNumber[1];\n        result[6] = tempNumber[0]*256*256 + 2*256+ tempNumber[2];\n        result[7] = tempNumber[0]*256*256 + 3*256+ tempNumber[3];\n        result[8] = 1*256*256*256 + tempNumber[1]*256*256 + 2*256 + tempNumber[2];\n        result[9] = 1*256*256*256 + tempNumber[1]*256*256 + 3*256 + tempNumber[3];\n        result[10] = 2*256*256*256 + tempNumber[2]*256*256 + 3*256 + tempNumber[3];\n\n        return result;\n    }\n\n    function calculateMatchingRewardAmount() internal view returns (uint256[4] memory) {\n        uint64[keyLengthForEachBuy] memory numberIndexKey = generateNumberIndexKey(winningNumbers);\n\n        uint256 totalAmout1 = userBuyAmountSum[issueIndex][numberIndexKey[0]];\n\n        uint256 sumForTotalAmout2 = userBuyAmountSum[issueIndex][numberIndexKey[1]];\n        sumForTotalAmout2 = sumForTotalAmout2.add(userBuyAmountSum[issueIndex][numberIndexKey[2]]);\n        sumForTotalAmout2 = sumForTotalAmout2.add(userBuyAmountSum[issueIndex][numberIndexKey[3]]);\n        sumForTotalAmout2 = sumForTotalAmout2.add(userBuyAmountSum[issueIndex][numberIndexKey[4]]);\n\n        uint256 totalAmout2 = sumForTotalAmout2.sub(totalAmout1.mul(4));\n\n        uint256 sumForTotalAmout3 = userBuyAmountSum[issueIndex][numberIndexKey[5]];\n        sumForTotalAmout3 = sumForTotalAmout3.add(userBuyAmountSum[issueIndex][numberIndexKey[6]]);\n        sumForTotalAmout3 = sumForTotalAmout3.add(userBuyAmountSum[issueIndex][numberIndexKey[7]]);\n        sumForTotalAmout3 = sumForTotalAmout3.add(userBuyAmountSum[issueIndex][numberIndexKey[8]]);\n        sumForTotalAmout3 = sumForTotalAmout3.add(userBuyAmountSum[issueIndex][numberIndexKey[9]]);\n        sumForTotalAmout3 = sumForTotalAmout3.add(userBuyAmountSum[issueIndex][numberIndexKey[10]]);\n\n        uint256 totalAmout3 = sumForTotalAmout3.add(totalAmout1.mul(6)).sub(sumForTotalAmout2.mul(3));\n\n        return [totalAmount, totalAmout1, totalAmout2, totalAmout3];\n    }\n\n    function getMatchingRewardAmount(uint256 _issueIndex, uint256 _matchingNumber) public view returns (uint256) {\n        return historyAmount[_issueIndex][5 - _matchingNumber];\n    }\n\n    function getTotalRewards(uint256 _issueIndex) public view returns(uint256) {\n        require (_issueIndex <= issueIndex, '_issueIndex <= issueIndex');\n\n        if(!drawed() && _issueIndex == issueIndex) {\n            return totalAmount;\n        }\n        return historyAmount[_issueIndex][0];\n    }\n\n    function getRewardView(uint256 _tokenId) public view returns(uint256) {\n        uint256 _issueIndex = lotteryNFT.getLotteryIssueIndex(_tokenId);\n        uint8[4] memory lotteryNumbers = lotteryNFT.getLotteryNumbers(_tokenId);\n        uint8[4] memory _winningNumbers = historyNumbers[_issueIndex];\n        require(_winningNumbers[0] != 0, \"not drawed\");\n\n        uint256 matchingNumber = 0;\n        for (uint i = 0; i < lotteryNumbers.length; i++) {\n            if (_winningNumbers[i] == lotteryNumbers[i]) {\n                matchingNumber= matchingNumber +1;\n            }\n        }\n        uint256 reward = 0;\n        if (matchingNumber > 1) {\n            uint256 amount = lotteryNFT.getLotteryAmount(_tokenId);\n            uint256 poolAmount = getTotalRewards(_issueIndex).mul(allocation[4-matchingNumber]).div(100);\n            reward = amount.mul(1e12).div(getMatchingRewardAmount(_issueIndex, matchingNumber)).mul(poolAmount);\n        }\n        return reward.div(1e12);\n    }\n\n\n    // Update admin address by the previous dev.\n    function setAdmin(address _adminAddress) public onlyOwner {\n        adminAddress = _adminAddress;\n    }\n\n    // Withdraw without caring about rewards. EMERGENCY ONLY.\n    function adminWithdraw(uint256 _amount) public onlyAdmin {\n        pbear.safeTransfer(address(msg.sender), _amount);\n        emit DevWithdraw(msg.sender, _amount);\n    }\n\n    // Set the minimum price for one ticket\n    function setMinPrice(uint256 _price) external onlyAdmin {\n        minPrice = _price;\n    }\n\n    // Set the minimum price for one ticket\n    function setMaxNumber(uint8 _maxNumber) external onlyAdmin {\n        maxNumber = _maxNumber;\n    }\n\n    // Set the allocation for one reward\n    function setAllocation(uint8 _allcation1, uint8 _allcation2, uint8 _allcation3) external onlyAdmin {\n        require (_allcation1 + _allcation2 + _allcation3 < 100, 'exceed 100');\n        allocation = [_allcation1, _allcation2, _allcation3];\n    }\n\n}",
  "sourcePath": "/Users/rostyslav/Desktop/kitty/goose/lottery-contract/contracts/Lottery.sol",
  "compiler": {
    "name": "solc",
    "version": "0.6.12+commit.27d51765.Emscripten.clang"
  },
  "schemaVersion": "3.3.4",
  "updatedAt": "2021-03-03T12:08:06.298Z",
  "networkType": "ethereum",
  "devdoc": {
    "kind": "dev",
    "methods": {
      "owner()": {
        "details": "Returns the address of the current owner."
      },
      "renounceOwnership()": {
        "details": "Leaves the contract without owner. It will not be possible to call `onlyOwner` functions anymore. Can only be called by the current owner. NOTE: Renouncing ownership will leave the contract without an owner, thereby removing any functionality that is only available to the owner."
      },
      "transferOwnership(address)": {
        "details": "Transfers ownership of the contract to a new account (`newOwner`). Can only be called by the current owner."
      }
    },
    "version": 1
  },
  "userdoc": {
    "kind": "user",
    "methods": {},
    "version": 1
  }
}