{
  "contractName": "LotteryRewardProxy",
  "abi": [
    {
      "inputs": [
        {
          "internalType": "contract Lottery",
          "name": "_lottery",
          "type": "address"
        },
        {
          "internalType": "contract IERC20",
          "name": "_pbear",
          "type": "address"
        },
        {
          "internalType": "address",
          "name": "_admin",
          "type": "address"
        }
      ],
      "stateMutability": "nonpayable",
      "type": "constructor"
    },
    {
      "anonymous": false,
      "inputs": [
        {
          "indexed": false,
          "internalType": "uint256",
          "name": "amount",
          "type": "uint256"
        }
      ],
      "name": "Inject",
      "type": "event"
    },
    {
      "anonymous": false,
      "inputs": [
        {
          "indexed": false,
          "internalType": "uint256",
          "name": "amount",
          "type": "uint256"
        }
      ],
      "name": "Withdraw",
      "type": "event"
    },
    {
      "inputs": [],
      "name": "adminAddress",
      "outputs": [
        {
          "internalType": "address",
          "name": "",
          "type": "address"
        }
      ],
      "stateMutability": "view",
      "type": "function"
    },
    {
      "inputs": [],
      "name": "lottery",
      "outputs": [
        {
          "internalType": "contract Lottery",
          "name": "",
          "type": "address"
        }
      ],
      "stateMutability": "view",
      "type": "function"
    },
    {
      "inputs": [],
      "name": "pbear",
      "outputs": [
        {
          "internalType": "contract IERC20",
          "name": "",
          "type": "address"
        }
      ],
      "stateMutability": "view",
      "type": "function"
    },
    {
      "inputs": [
        {
          "internalType": "uint256",
          "name": "_amount",
          "type": "uint256"
        }
      ],
      "name": "inject",
      "outputs": [],
      "stateMutability": "nonpayable",
      "type": "function"
    },
    {
      "inputs": [
        {
          "internalType": "uint256",
          "name": "_amount",
          "type": "uint256"
        }
      ],
      "name": "adminWithdraw",
      "outputs": [],
      "stateMutability": "nonpayable",
      "type": "function"
    },
    {
      "inputs": [
        {
          "internalType": "address",
          "name": "_adminAddress",
          "type": "address"
        }
      ],
      "name": "setAdmin",
      "outputs": [],
      "stateMutability": "nonpayable",
      "type": "function"
    },
    {
      "inputs": [
        {
          "internalType": "contract Lottery",
          "name": "_lotteryAddress",
          "type": "address"
        }
      ],
      "name": "setLottery",
      "outputs": [],
      "stateMutability": "nonpayable",
      "type": "function"
    }
  ],
  "bytecode": "0x6101006040526000608081815260a082905260c082905260e09190915261002a9060039060046100a8565b5034801561003757600080fd5b50604051610d8c380380610d8c8339818101604052606081101561005a57600080fd5b5080516020820151604090920151600080546001600160a01b03199081166001600160a01b039485161790915560018054821694841694909417909355600280549093169116179055610154565b60018301918390821561012b5791602002820160005b838211156100fc57835183826101000a81548160ff021916908360ff16021790555092602001926001016020816000010492830192600103026100be565b80156101295782816101000a81549060ff02191690556001016020816000010492830192600103026100fc565b505b5061013792915061013b565b5090565b5b8082111561013757805460ff1916815560010161013c565b610c29806101636000396000f3fe608060405234801561001057600080fd5b506004361061007d5760003560e01c80637c5b4a371161005b5780637c5b4a3714610105578063ba13a57214610122578063f298083b1461012a578063fc6f94681461015d5761007d565b80631145dae5146100825780631820433f146100b3578063704b6c02146100d2575b600080fd5b61008a610165565b6040805173ffffffffffffffffffffffffffffffffffffffff9092168252519081900360200190f35b6100d0600480360360208110156100c957600080fd5b5035610181565b005b6100d0600480360360208110156100e857600080fd5b503573ffffffffffffffffffffffffffffffffffffffff1661032f565b6100d06004803603602081101561011b57600080fd5b50356103fc565b61008a6104dc565b6100d06004803603602081101561014057600080fd5b503573ffffffffffffffffffffffffffffffffffffffff166104f8565b61008a6105c5565b60015473ffffffffffffffffffffffffffffffffffffffff1681565b60025473ffffffffffffffffffffffffffffffffffffffff16331461020757604080517f08c379a000000000000000000000000000000000000000000000000000000000815260206004820152600b60248201527f61646d696e3a207775743f000000000000000000000000000000000000000000604482015290519081900360640190fd5b6000546001546102319173ffffffffffffffffffffffffffffffffffffffff9182169116836105e1565b600080546040517f14c20d570000000000000000000000000000000000000000000000000000000081526004810184815273ffffffffffffffffffffffffffffffffffffffff909216926314c20d5792859260039260a48201918491906024015b825461010083900a900460ff16815260206001928301818104948501949093039092029101808411610292579050505092505050600060405180830381600087803b1580156102e057600080fd5b505af11580156102f4573d6000803e3d6000fd5b50506040805184815290517f7a70cc8a2f344f41ffb186a3d6776e3a23fe933aa762a1a77f99e90390f4ccc19350908190036020019150a150565b60025473ffffffffffffffffffffffffffffffffffffffff1633146103b557604080517f08c379a000000000000000000000000000000000000000000000000000000000815260206004820152600b60248201527f61646d696e3a207775743f000000000000000000000000000000000000000000604482015290519081900360640190fd5b600280547fffffffffffffffffffffffff00000000000000000000000000000000000000001673ffffffffffffffffffffffffffffffffffffffff92909216919091179055565b60025473ffffffffffffffffffffffffffffffffffffffff16331461048257604080517f08c379a000000000000000000000000000000000000000000000000000000000815260206004820152600b60248201527f61646d696e3a207775743f000000000000000000000000000000000000000000604482015290519081900360640190fd5b6001546104a69073ffffffffffffffffffffffffffffffffffffffff163383610774565b6040805182815290517f5b6b431d4476a211bb7d41c20d1aab9ae2321deee0d20be3d9fc9b1093fa6e3d9181900360200190a150565b60005473ffffffffffffffffffffffffffffffffffffffff1681565b60025473ffffffffffffffffffffffffffffffffffffffff16331461057e57604080517f08c379a000000000000000000000000000000000000000000000000000000000815260206004820152600b60248201527f61646d696e3a207775743f000000000000000000000000000000000000000000604482015290519081900360640190fd5b600080547fffffffffffffffffffffffff00000000000000000000000000000000000000001673ffffffffffffffffffffffffffffffffffffffff92909216919091179055565b60025473ffffffffffffffffffffffffffffffffffffffff1681565b80158061068d5750604080517fdd62ed3e00000000000000000000000000000000000000000000000000000000815230600482015273ffffffffffffffffffffffffffffffffffffffff848116602483015291519185169163dd62ed3e91604480820192602092909190829003018186803b15801561065f57600080fd5b505afa158015610673573d6000803e3d6000fd5b505050506040513d602081101561068957600080fd5b5051155b6106e2576040517f08c379a0000000000000000000000000000000000000000000000000000000008152600401808060200182810382526036815260200180610bbe6036913960400191505060405180910390fd5b6040805173ffffffffffffffffffffffffffffffffffffffff8416602482015260448082018490528251808303909101815260649091019091526020810180517bffffffffffffffffffffffffffffffffffffffffffffffffffffffff167f095ea7b30000000000000000000000000000000000000000000000000000000017905261076f9084906107fd565b505050565b6040805173ffffffffffffffffffffffffffffffffffffffff8416602482015260448082018490528251808303909101815260649091019091526020810180517bffffffffffffffffffffffffffffffffffffffffffffffffffffffff167fa9059cbb0000000000000000000000000000000000000000000000000000000017905261076f9084905b606061085f826040518060400160405280602081526020017f5361666545524332303a206c6f772d6c6576656c2063616c6c206661696c65648152508573ffffffffffffffffffffffffffffffffffffffff166108d59092919063ffffffff16565b80519091501561076f5780806020019051602081101561087e57600080fd5b505161076f576040517f08c379a000000000000000000000000000000000000000000000000000000000815260040180806020018281038252602a815260200180610b94602a913960400191505060405180910390fd5b60606108e484846000856108ee565b90505b9392505050565b606082471015610949576040517f08c379a0000000000000000000000000000000000000000000000000000000008152600401808060200182810382526026815260200180610b6e6026913960400191505060405180910390fd5b61095285610aa9565b6109bd57604080517f08c379a000000000000000000000000000000000000000000000000000000000815260206004820152601d60248201527f416464726573733a2063616c6c20746f206e6f6e2d636f6e7472616374000000604482015290519081900360640190fd5b600060608673ffffffffffffffffffffffffffffffffffffffff1685876040518082805190602001908083835b60208310610a2757805182527fffffffffffffffffffffffffffffffffffffffffffffffffffffffffffffffe090920191602091820191016109ea565b6001836020036101000a03801982511681845116808217855250505050505090500191505060006040518083038185875af1925050503d8060008114610a89576040519150601f19603f3d011682016040523d82523d6000602084013e610a8e565b606091505b5091509150610a9e828286610aaf565b979650505050505050565b3b151590565b60608315610abe5750816108e7565b825115610ace5782518084602001fd5b816040517f08c379a00000000000000000000000000000000000000000000000000000000081526004018080602001828103825283818151815260200191508051906020019080838360005b83811015610b32578181015183820152602001610b1a565b50505050905090810190601f168015610b5f5780820380516001836020036101000a031916815260200191505b509250505060405180910390fdfe416464726573733a20696e73756666696369656e742062616c616e636520666f722063616c6c5361666545524332303a204552433230206f7065726174696f6e20646964206e6f7420737563636565645361666545524332303a20617070726f76652066726f6d206e6f6e2d7a65726f20746f206e6f6e2d7a65726f20616c6c6f77616e6365a2646970667358221220083fc229ca31fa7463a34c23e34989ac3c0fd10474a947d8df830d500ead39b264736f6c634300060c0033",
  "immutableReferences": {},
  "source": "pragma solidity 0.6.12;\n\nimport \"@openzeppelin/contracts/token/ERC20/IERC20.sol\";\nimport \"@openzeppelin/contracts/token/ERC20/SafeERC20.sol\";\n\ninterface Lottery {\n    function buy(uint256 _price, uint8[4] memory _numbers) external;\n}\n\ncontract LotteryRewardProxy {\n    using SafeERC20 for IERC20;\n\n    Lottery public lottery;\n    IERC20 public pbear;\n    address public adminAddress;\n\n    constructor(\n        Lottery _lottery,\n        IERC20 _pbear,\n        address _admin\n    ) public {\n        lottery = _lottery;\n        pbear = _pbear;\n        adminAddress = _admin;\n    }\n\n    event Inject(uint256 amount);\n    event Withdraw(uint256 amount);\n\n    uint8[4] private nullTicket = [0,0,0,0];\n\n    modifier onlyAdmin() {\n        require(msg.sender == adminAddress, \"admin: wut?\");\n        _;\n    }\n\n    function inject(uint256 _amount) external onlyAdmin {\n        pbear.safeApprove(address(lottery), _amount);\n        lottery.buy(_amount, nullTicket);\n        emit Inject(_amount);\n    }\n\n    function adminWithdraw(uint256 _amount) external onlyAdmin {\n        pbear.safeTransfer(address(msg.sender), _amount);\n        emit Withdraw(_amount);\n    }\n\n    function setAdmin(address _adminAddress) external onlyAdmin {\n        adminAddress = _adminAddress;\n    }\n\n    function setLottery(Lottery _lotteryAddress) external onlyAdmin {\n        lottery = _lotteryAddress;\n    }\n\n}",
  "sourcePath": "/Users/rostyslav/Desktop/kitty/goose/lottery-contract/contracts/LotteryRewardProxy.sol",
  "compiler": {
    "name": "solc",
    "version": "0.6.12+commit.27d51765.Emscripten.clang"
  },
  "schemaVersion": "3.3.4",
  "updatedAt": "2021-03-03T12:05:39.015Z",
  "devdoc": {
    "kind": "dev",
    "methods": {},
    "version": 1
  },
  "userdoc": {
    "kind": "user",
    "methods": {},
    "version": 1
  }
}