{
  "contractName": "LotteryNFT",
  "abi": [
    {
      "inputs": [],
      "stateMutability": "nonpayable",
      "type": "constructor"
    },
    {
      "anonymous": false,
      "inputs": [
        {
          "indexed": true,
          "internalType": "address",
          "name": "owner",
          "type": "address"
        },
        {
          "indexed": true,
          "internalType": "address",
          "name": "approved",
          "type": "address"
        },
        {
          "indexed": true,
          "internalType": "uint256",
          "name": "tokenId",
          "type": "uint256"
        }
      ],
      "name": "Approval",
      "type": "event"
    },
    {
      "anonymous": false,
      "inputs": [
        {
          "indexed": true,
          "internalType": "address",
          "name": "owner",
          "type": "address"
        },
        {
          "indexed": true,
          "internalType": "address",
          "name": "operator",
          "type": "address"
        },
        {
          "indexed": false,
          "internalType": "bool",
          "name": "approved",
          "type": "bool"
        }
      ],
      "name": "ApprovalForAll",
      "type": "event"
    },
    {
      "anonymous": false,
      "inputs": [
        {
          "indexed": true,
          "internalType": "address",
          "name": "previousOwner",
          "type": "address"
        },
        {
          "indexed": true,
          "internalType": "address",
          "name": "newOwner",
          "type": "address"
        }
      ],
      "name": "OwnershipTransferred",
      "type": "event"
    },
    {
      "anonymous": false,
      "inputs": [
        {
          "indexed": true,
          "internalType": "address",
          "name": "from",
          "type": "address"
        },
        {
          "indexed": true,
          "internalType": "address",
          "name": "to",
          "type": "address"
        },
        {
          "indexed": true,
          "internalType": "uint256",
          "name": "tokenId",
          "type": "uint256"
        }
      ],
      "name": "Transfer",
      "type": "event"
    },
    {
      "inputs": [
        {
          "internalType": "address",
          "name": "to",
          "type": "address"
        },
        {
          "internalType": "uint256",
          "name": "tokenId",
          "type": "uint256"
        }
      ],
      "name": "approve",
      "outputs": [],
      "stateMutability": "nonpayable",
      "type": "function"
    },
    {
      "inputs": [
        {
          "internalType": "address",
          "name": "owner",
          "type": "address"
        }
      ],
      "name": "balanceOf",
      "outputs": [
        {
          "internalType": "uint256",
          "name": "",
          "type": "uint256"
        }
      ],
      "stateMutability": "view",
      "type": "function",
      "constant": true
    },
    {
      "inputs": [],
      "name": "baseURI",
      "outputs": [
        {
          "internalType": "string",
          "name": "",
          "type": "string"
        }
      ],
      "stateMutability": "view",
      "type": "function",
      "constant": true
    },
    {
      "inputs": [
        {
          "internalType": "uint256",
          "name": "",
          "type": "uint256"
        }
      ],
      "name": "claimInfo",
      "outputs": [
        {
          "internalType": "bool",
          "name": "",
          "type": "bool"
        }
      ],
      "stateMutability": "view",
      "type": "function",
      "constant": true
    },
    {
      "inputs": [
        {
          "internalType": "uint256",
          "name": "tokenId",
          "type": "uint256"
        }
      ],
      "name": "getApproved",
      "outputs": [
        {
          "internalType": "address",
          "name": "",
          "type": "address"
        }
      ],
      "stateMutability": "view",
      "type": "function",
      "constant": true
    },
    {
      "inputs": [
        {
          "internalType": "address",
          "name": "owner",
          "type": "address"
        },
        {
          "internalType": "address",
          "name": "operator",
          "type": "address"
        }
      ],
      "name": "isApprovedForAll",
      "outputs": [
        {
          "internalType": "bool",
          "name": "",
          "type": "bool"
        }
      ],
      "stateMutability": "view",
      "type": "function",
      "constant": true
    },
    {
      "inputs": [
        {
          "internalType": "uint256",
          "name": "",
          "type": "uint256"
        }
      ],
      "name": "issueIndex",
      "outputs": [
        {
          "internalType": "uint256",
          "name": "",
          "type": "uint256"
        }
      ],
      "stateMutability": "view",
      "type": "function",
      "constant": true
    },
    {
      "inputs": [
        {
          "internalType": "uint256",
          "name": "",
          "type": "uint256"
        }
      ],
      "name": "lotteryAmount",
      "outputs": [
        {
          "internalType": "uint256",
          "name": "",
          "type": "uint256"
        }
      ],
      "stateMutability": "view",
      "type": "function",
      "constant": true
    },
    {
      "inputs": [
        {
          "internalType": "uint256",
          "name": "",
          "type": "uint256"
        },
        {
          "internalType": "uint256",
          "name": "",
          "type": "uint256"
        }
      ],
      "name": "lotteryInfo",
      "outputs": [
        {
          "internalType": "uint8",
          "name": "",
          "type": "uint8"
        }
      ],
      "stateMutability": "view",
      "type": "function",
      "constant": true
    },
    {
      "inputs": [],
      "name": "name",
      "outputs": [
        {
          "internalType": "string",
          "name": "",
          "type": "string"
        }
      ],
      "stateMutability": "view",
      "type": "function",
      "constant": true
    },
    {
      "inputs": [],
      "name": "owner",
      "outputs": [
        {
          "internalType": "address",
          "name": "",
          "type": "address"
        }
      ],
      "stateMutability": "view",
      "type": "function",
      "constant": true
    },
    {
      "inputs": [
        {
          "internalType": "uint256",
          "name": "tokenId",
          "type": "uint256"
        }
      ],
      "name": "ownerOf",
      "outputs": [
        {
          "internalType": "address",
          "name": "",
          "type": "address"
        }
      ],
      "stateMutability": "view",
      "type": "function",
      "constant": true
    },
    {
      "inputs": [],
      "name": "renounceOwnership",
      "outputs": [],
      "stateMutability": "nonpayable",
      "type": "function"
    },
    {
      "inputs": [
        {
          "internalType": "address",
          "name": "from",
          "type": "address"
        },
        {
          "internalType": "address",
          "name": "to",
          "type": "address"
        },
        {
          "internalType": "uint256",
          "name": "tokenId",
          "type": "uint256"
        }
      ],
      "name": "safeTransferFrom",
      "outputs": [],
      "stateMutability": "nonpayable",
      "type": "function"
    },
    {
      "inputs": [
        {
          "internalType": "address",
          "name": "from",
          "type": "address"
        },
        {
          "internalType": "address",
          "name": "to",
          "type": "address"
        },
        {
          "internalType": "uint256",
          "name": "tokenId",
          "type": "uint256"
        },
        {
          "internalType": "bytes",
          "name": "_data",
          "type": "bytes"
        }
      ],
      "name": "safeTransferFrom",
      "outputs": [],
      "stateMutability": "nonpayable",
      "type": "function"
    },
    {
      "inputs": [
        {
          "internalType": "address",
          "name": "operator",
          "type": "address"
        },
        {
          "internalType": "bool",
          "name": "approved",
          "type": "bool"
        }
      ],
      "name": "setApprovalForAll",
      "outputs": [],
      "stateMutability": "nonpayable",
      "type": "function"
    },
    {
      "inputs": [
        {
          "internalType": "bytes4",
          "name": "interfaceId",
          "type": "bytes4"
        }
      ],
      "name": "supportsInterface",
      "outputs": [
        {
          "internalType": "bool",
          "name": "",
          "type": "bool"
        }
      ],
      "stateMutability": "view",
      "type": "function",
      "constant": true
    },
    {
      "inputs": [],
      "name": "symbol",
      "outputs": [
        {
          "internalType": "string",
          "name": "",
          "type": "string"
        }
      ],
      "stateMutability": "view",
      "type": "function",
      "constant": true
    },
    {
      "inputs": [
        {
          "internalType": "uint256",
          "name": "index",
          "type": "uint256"
        }
      ],
      "name": "tokenByIndex",
      "outputs": [
        {
          "internalType": "uint256",
          "name": "",
          "type": "uint256"
        }
      ],
      "stateMutability": "view",
      "type": "function",
      "constant": true
    },
    {
      "inputs": [
        {
          "internalType": "address",
          "name": "owner",
          "type": "address"
        },
        {
          "internalType": "uint256",
          "name": "index",
          "type": "uint256"
        }
      ],
      "name": "tokenOfOwnerByIndex",
      "outputs": [
        {
          "internalType": "uint256",
          "name": "",
          "type": "uint256"
        }
      ],
      "stateMutability": "view",
      "type": "function",
      "constant": true
    },
    {
      "inputs": [
        {
          "internalType": "uint256",
          "name": "tokenId",
          "type": "uint256"
        }
      ],
      "name": "tokenURI",
      "outputs": [
        {
          "internalType": "string",
          "name": "",
          "type": "string"
        }
      ],
      "stateMutability": "view",
      "type": "function",
      "constant": true
    },
    {
      "inputs": [],
      "name": "totalSupply",
      "outputs": [
        {
          "internalType": "uint256",
          "name": "",
          "type": "uint256"
        }
      ],
      "stateMutability": "view",
      "type": "function",
      "constant": true
    },
    {
      "inputs": [
        {
          "internalType": "address",
          "name": "from",
          "type": "address"
        },
        {
          "internalType": "address",
          "name": "to",
          "type": "address"
        },
        {
          "internalType": "uint256",
          "name": "tokenId",
          "type": "uint256"
        }
      ],
      "name": "transferFrom",
      "outputs": [],
      "stateMutability": "nonpayable",
      "type": "function"
    },
    {
      "inputs": [
        {
          "internalType": "address",
          "name": "newOwner",
          "type": "address"
        }
      ],
      "name": "transferOwnership",
      "outputs": [],
      "stateMutability": "nonpayable",
      "type": "function"
    },
    {
      "inputs": [
        {
          "internalType": "address",
          "name": "player",
          "type": "address"
        },
        {
          "internalType": "uint8[4]",
          "name": "_lotteryNumbers",
          "type": "uint8[4]"
        },
        {
          "internalType": "uint256",
          "name": "_amount",
          "type": "uint256"
        },
        {
          "internalType": "uint256",
          "name": "_issueIndex",
          "type": "uint256"
        }
      ],
      "name": "newLotteryItem",
      "outputs": [
        {
          "internalType": "uint256",
          "name": "",
          "type": "uint256"
        }
      ],
      "stateMutability": "nonpayable",
      "type": "function"
    },
    {
      "inputs": [
        {
          "internalType": "uint256",
          "name": "tokenId",
          "type": "uint256"
        }
      ],
      "name": "getLotteryNumbers",
      "outputs": [
        {
          "internalType": "uint8[4]",
          "name": "",
          "type": "uint8[4]"
        }
      ],
      "stateMutability": "view",
      "type": "function",
      "constant": true
    },
    {
      "inputs": [
        {
          "internalType": "uint256",
          "name": "tokenId",
          "type": "uint256"
        }
      ],
      "name": "getLotteryAmount",
      "outputs": [
        {
          "internalType": "uint256",
          "name": "",
          "type": "uint256"
        }
      ],
      "stateMutability": "view",
      "type": "function",
      "constant": true
    },
    {
      "inputs": [
        {
          "internalType": "uint256",
          "name": "tokenId",
          "type": "uint256"
        }
      ],
      "name": "getLotteryIssueIndex",
      "outputs": [
        {
          "internalType": "uint256",
          "name": "",
          "type": "uint256"
        }
      ],
      "stateMutability": "view",
      "type": "function",
      "constant": true
    },
    {
      "inputs": [
        {
          "internalType": "uint256",
          "name": "tokenId",
          "type": "uint256"
        }
      ],
      "name": "claimReward",
      "outputs": [],
      "stateMutability": "nonpayable",
      "type": "function"
    },
    {
      "inputs": [
        {
          "internalType": "uint256[]",
          "name": "_tokenIds",
          "type": "uint256[]"
        }
      ],
      "name": "multiClaimReward",
      "outputs": [],
      "stateMutability": "nonpayable",
      "type": "function"
    },
    {
      "inputs": [
        {
          "internalType": "uint256",
          "name": "tokenId",
          "type": "uint256"
        }
      ],
      "name": "burn",
      "outputs": [],
      "stateMutability": "nonpayable",
      "type": "function"
    },
    {
      "inputs": [
        {
          "internalType": "uint256",
          "name": "tokenId",
          "type": "uint256"
        }
      ],
      "name": "getClaimStatus",
      "outputs": [
        {
          "internalType": "bool",
          "name": "",
          "type": "bool"
        }
      ],
      "stateMutability": "view",
      "type": "function",
      "constant": true
    }
  ],
  "bytecode": "0x60806040523480156200001157600080fd5b5060408051808201825260208082527f4c6f7474657279205469636b6574206279207062656172732e66696e616e63658183015282518084019093526006835265151250d2d15560d21b9083015290620000726301ffc9a760e01b62000137565b81516200008790600690602085019062000196565b5080516200009d90600790602084019062000196565b50620000b06380ac58cd60e01b62000137565b620000c2635b5e139f60e01b62000137565b620000d463780e9d6360e01b62000137565b5060009050620000e362000192565b600a80546001600160a01b0319166001600160a01b038316908117909155604051919250906000907f8be0079c531659141344cd1fd0a4f28419497f9722a3daafe3b4186f6b6457e0908290a35062000269565b6001600160e01b031980821614156200016d5760405162461bcd60e51b8152600401620001649062000232565b60405180910390fd5b6001600160e01b0319166000908152602081905260409020805460ff19166001179055565b3390565b828054600181600116156101000203166002900490600052602060002090601f016020900481019282601f10620001d957805160ff191683800117855562000209565b8280016001018555821562000209579182015b8281111562000209578251825591602001919060010190620001ec565b50620002179291506200021b565b5090565b5b808211156200021757600081556001016200021c565b6020808252601c908201527f4552433136353a20696e76616c696420696e7465726661636520696400000000604082015260600190565b612e7580620002796000396000f3fe608060405234801561001057600080fd5b50600436106101f05760003560e01c80636352211e1161010f578063a22cb465116100a2578063c87b56dd11610071578063c87b56dd14610420578063e985e9c514610433578063f2fde38b14610446578063f7a0c0ca14610459576101f0565b8063a22cb465146103d4578063ae169a50146103e7578063b88d4fde146103fa578063c13f690b1461040d576101f0565b8063715018a6116100de578063715018a6146103a957806374310355146103b15780638da5cb5b146103c457806395d89b41146103cc576101f0565b80636352211e1461035b5780636575243f1461036e5780636c0360eb1461038e57806370a0823114610396576101f0565b80632f745c591161018757806342966c681161015657806342966c68146103025780634f6ccce7146103155780635c362233146103285780635f8e26a71461033b576101f0565b80632f745c59146102b657806336dbd2f9146102c957806337391c00146102dc57806342842e0e146102ef576101f0565b8063095ea7b3116101c3578063095ea7b31461027357806318160ddd146102885780631bf1e00f1461029057806323b872dd146102a3576101f0565b806301ffc9a7146101f557806306fdde031461021e578063081812fc1461023357806308c7662514610253575b600080fd5b610208610203366004612563565b61046c565b6040516102159190612707565b60405180910390f35b6102266104a7565b6040516102159190612712565b61024661024136600461259b565b61055b565b6040516102159190612669565b61026661026136600461259b565b6105ce565b6040516102159190612ced565b6102866102813660046124a9565b6105e0565b005b6102666106e0565b61026661029e36600461259b565b6106f1565b6102866102b13660046122c3565b610703565b6102666102c43660046124a9565b610755565b6102086102d736600461259b565b61078d565b6102666102ea3660046123d7565b6107a2565b6102866102fd3660046122c3565b61087d565b61028661031036600461259b565b610898565b61026661032336600461259b565b610917565b61020861033636600461259b565b61092d565b61034e61034936600461259b565b610942565b60405161021591906126d3565b61024661036936600461259b565b6109a6565b61038161037c3660046125b3565b6109ce565b6040516102159190612cf6565b610226610a04565b6102666103a4366004612274565b610a83565b610286610b00565b6102866103bf3660046124d3565b610be2565b610246610cc6565b610226610ce2565b6102866103e236600461246e565b610d61565b6102866103f536600461259b565b610e9b565b610286610408366004612303565b610f47565b61026661041b36600461259b565b610fa0565b61022661042e36600461259b565b610fb2565b61020861044136600461228f565b611130565b610286610454366004612274565b61116b565b61026661046736600461259b565b6112b9565b7fffffffff00000000000000000000000000000000000000000000000000000000811660009081526020819052604090205460ff165b919050565b60068054604080516020601f60027fffffffffffffffffffffffffffffffffffffffffffffffffffffffffffffffff6101006001881615020190951694909404938401819004810282018101909252828152606093909290918301828280156105515780601f1061052657610100808354040283529160200191610551565b820191906000526020600020905b81548152906001019060200180831161053457829003601f168201915b5050505050905090565b6000610566826112cb565b6105a5576040517f08c379a000000000000000000000000000000000000000000000000000000000815260040161059c90612ab0565b60405180910390fd5b5060009081526004602052604090205473ffffffffffffffffffffffffffffffffffffffff1690565b600e6020526000908152604090205481565b60006105eb826109a6565b90508073ffffffffffffffffffffffffffffffffffffffff168373ffffffffffffffffffffffffffffffffffffffff161415610653576040517f08c379a000000000000000000000000000000000000000000000000000000000815260040161059c90612bfc565b8073ffffffffffffffffffffffffffffffffffffffff166106726112d8565b73ffffffffffffffffffffffffffffffffffffffff16148061069b575061069b816104416112d8565b6106d1576040517f08c379a000000000000000000000000000000000000000000000000000000000815260040161059c90612964565b6106db83836112dc565b505050565b60006106ec600261137c565b905090565b6000908152600e602052604090205490565b61071461070e6112d8565b82611387565b61074a576040517f08c379a000000000000000000000000000000000000000000000000000000000815260040161059c90612c59565b6106db838383611452565b73ffffffffffffffffffffffffffffffffffffffff8216600090815260016020526040812061078490836115ef565b90505b92915050565b6000908152600f602052604090205460ff1690565b60006107ac6112d8565b73ffffffffffffffffffffffffffffffffffffffff166107ca610cc6565b73ffffffffffffffffffffffffffffffffffffffff1614610817576040517f08c379a000000000000000000000000000000000000000000000000000000000815260040161059c90612b0d565b610821600b6115fb565b600061082d600b611604565b90506108398682611608565b6000818152600c60205260409020610853908660046120fe565b506000818152600d60209081526040808320879055600e909152902083905590505b949350505050565b6106db83838360405180602001604052806000815250610f47565b6108a06112d8565b73ffffffffffffffffffffffffffffffffffffffff166108be610cc6565b73ffffffffffffffffffffffffffffffffffffffff161461090b576040517f08c379a000000000000000000000000000000000000000000000000000000000815260040161059c90612b0d565b61091481611727565b50565b60008061092560028461182c565b509392505050565b600f6020526000908152604090205460ff1681565b61094a612191565b6000828152600c6020526040808220815160808101928390529290916004918390855b825461010083900a900460ff1681526020600192830181810494850194909303909202910180841161096d575094979650505050505050565b600061078782604051806060016040528060298152602001612e176029913960029190611848565b600c60205281600052604060002081600481106109e757fe5b602081049091015460ff601f9092166101000a9004169150829050565b60098054604080516020601f60027fffffffffffffffffffffffffffffffffffffffffffffffffffffffffffffffff6101006001881615020190951694909404938401819004810282018101909252828152606093909290918301828280156105515780601f1061052657610100808354040283529160200191610551565b600073ffffffffffffffffffffffffffffffffffffffff8216610ad2576040517f08c379a000000000000000000000000000000000000000000000000000000000815260040161059c906129c1565b73ffffffffffffffffffffffffffffffffffffffff821660009081526001602052604090206107879061137c565b610b086112d8565b73ffffffffffffffffffffffffffffffffffffffff16610b26610cc6565b73ffffffffffffffffffffffffffffffffffffffff1614610b73576040517f08c379a000000000000000000000000000000000000000000000000000000000815260040161059c90612b0d565b600a5460405160009173ffffffffffffffffffffffffffffffffffffffff16907f8be0079c531659141344cd1fd0a4f28419497f9722a3daafe3b4186f6b6457e0908390a3600a80547fffffffffffffffffffffffff0000000000000000000000000000000000000000169055565b610bea6112d8565b73ffffffffffffffffffffffffffffffffffffffff16610c08610cc6565b73ffffffffffffffffffffffffffffffffffffffff1614610c55576040517f08c379a000000000000000000000000000000000000000000000000000000000815260040161059c90612b0d565b60005b8151811015610cc2576001600f6000848481518110610c7357fe5b602090810291909101810151825281019190915260400160002080547fffffffffffffffffffffffffffffffffffffffffffffffffffffffffffffff0016911515919091179055600101610c58565b5050565b600a5473ffffffffffffffffffffffffffffffffffffffff1690565b60078054604080516020601f60027fffffffffffffffffffffffffffffffffffffffffffffffffffffffffffffffff6101006001881615020190951694909404938401819004810282018101909252828152606093909290918301828280156105515780601f1061052657610100808354040283529160200191610551565b610d696112d8565b73ffffffffffffffffffffffffffffffffffffffff168273ffffffffffffffffffffffffffffffffffffffff161415610dce576040517f08c379a000000000000000000000000000000000000000000000000000000000815260040161059c906128d0565b8060056000610ddb6112d8565b73ffffffffffffffffffffffffffffffffffffffff90811682526020808301939093526040918201600090812091871680825291909352912080547fffffffffffffffffffffffffffffffffffffffffffffffffffffffffffffff001692151592909217909155610e4a6112d8565b73ffffffffffffffffffffffffffffffffffffffff167f17307eab39ab6107e8899845ad3d59bd9653f200f220920489ca2b5937696c3183604051610e8f9190612707565b60405180910390a35050565b610ea36112d8565b73ffffffffffffffffffffffffffffffffffffffff16610ec1610cc6565b73ffffffffffffffffffffffffffffffffffffffff1614610f0e576040517f08c379a000000000000000000000000000000000000000000000000000000000815260040161059c90612b0d565b6000908152600f6020526040902080547fffffffffffffffffffffffffffffffffffffffffffffffffffffffffffffff00166001179055565b610f58610f526112d8565b83611387565b610f8e576040517f08c379a000000000000000000000000000000000000000000000000000000000815260040161059c90612c59565b610f9a8484848461185f565b50505050565b600d6020526000908152604090205481565b6060610fbd826112cb565b610ff3576040517f08c379a000000000000000000000000000000000000000000000000000000000815260040161059c90612b9f565b60008281526008602090815260409182902080548351601f60027fffffffffffffffffffffffffffffffffffffffffffffffffffffffffffffffff6101006001861615020190931692909204918201849004840281018401909452808452606093928301828280156110a65780601f1061107b576101008083540402835291602001916110a6565b820191906000526020600020905b81548152906001019060200180831161108957829003601f168201915b5050505050905060606110b7610a04565b90508051600014156110cb575090506104a2565b8151156110fd5780826040516020016110e592919061263a565b604051602081830303815290604052925050506104a2565b80611107856118ac565b60405160200161111892919061263a565b60405160208183030381529060405292505050919050565b73ffffffffffffffffffffffffffffffffffffffff918216600090815260056020908152604080832093909416825291909152205460ff1690565b6111736112d8565b73ffffffffffffffffffffffffffffffffffffffff16611191610cc6565b73ffffffffffffffffffffffffffffffffffffffff16146111de576040517f08c379a000000000000000000000000000000000000000000000000000000000815260040161059c90612b0d565b73ffffffffffffffffffffffffffffffffffffffff811661122b576040517f08c379a000000000000000000000000000000000000000000000000000000000815260040161059c906127df565b600a5460405173ffffffffffffffffffffffffffffffffffffffff8084169216907f8be0079c531659141344cd1fd0a4f28419497f9722a3daafe3b4186f6b6457e090600090a3600a80547fffffffffffffffffffffffff00000000000000000000000000000000000000001673ffffffffffffffffffffffffffffffffffffffff92909216919091179055565b6000908152600d602052604090205490565b60006107876002836119d9565b3390565b600081815260046020526040902080547fffffffffffffffffffffffff00000000000000000000000000000000000000001673ffffffffffffffffffffffffffffffffffffffff84169081179091558190611336826109a6565b73ffffffffffffffffffffffffffffffffffffffff167f8c5be1e5ebec7d5bd14f71427d1e84f3dd0314c0f7b2291e5b200ac8c7c3b92560405160405180910390a45050565b600061078782611604565b6000611392826112cb565b6113c8576040517f08c379a000000000000000000000000000000000000000000000000000000000815260040161059c90612907565b60006113d3836109a6565b90508073ffffffffffffffffffffffffffffffffffffffff168473ffffffffffffffffffffffffffffffffffffffff16148061144257508373ffffffffffffffffffffffffffffffffffffffff1661142a8461055b565b73ffffffffffffffffffffffffffffffffffffffff16145b8061087557506108758185611130565b8273ffffffffffffffffffffffffffffffffffffffff16611472826109a6565b73ffffffffffffffffffffffffffffffffffffffff16146114bf576040517f08c379a000000000000000000000000000000000000000000000000000000000815260040161059c90612b42565b73ffffffffffffffffffffffffffffffffffffffff821661150c576040517f08c379a000000000000000000000000000000000000000000000000000000000815260040161059c90612873565b6115178383836106db565b6115226000826112dc565b73ffffffffffffffffffffffffffffffffffffffff8316600090815260016020526040902061155190826119e5565b5073ffffffffffffffffffffffffffffffffffffffff8216600090815260016020526040902061158190826119f1565b5061158e600282846119fd565b50808273ffffffffffffffffffffffffffffffffffffffff168473ffffffffffffffffffffffffffffffffffffffff167fddf252ad1be2c89b69c2b068fc378daa952ba7f163c4a11628f55a4df523b3ef60405160405180910390a4505050565b60006107848383611a20565b80546001019055565b5490565b73ffffffffffffffffffffffffffffffffffffffff8216611655576040517f08c379a000000000000000000000000000000000000000000000000000000000815260040161059c90612a7b565b61165e816112cb565b15611695576040517f08c379a000000000000000000000000000000000000000000000000000000000815260040161059c9061283c565b6116a1600083836106db565b73ffffffffffffffffffffffffffffffffffffffff821660009081526001602052604090206116d090826119f1565b506116dd600282846119fd565b50604051819073ffffffffffffffffffffffffffffffffffffffff8416906000907fddf252ad1be2c89b69c2b068fc378daa952ba7f163c4a11628f55a4df523b3ef908290a45050565b6000611732826109a6565b9050611740816000846106db565b61174b6000836112dc565b60008281526008602052604090205460027fffffffffffffffffffffffffffffffffffffffffffffffffffffffffffffffff6101006001841615020190911604156117a75760008281526008602052604081206117a7916121af565b73ffffffffffffffffffffffffffffffffffffffff811660009081526001602052604090206117d690836119e5565b506117e2600283611a7f565b50604051829060009073ffffffffffffffffffffffffffffffffffffffff8416907fddf252ad1be2c89b69c2b068fc378daa952ba7f163c4a11628f55a4df523b3ef908390a45050565b600080808061183b8686611a8b565b9097909650945050505050565b6000611855848484611b01565b90505b9392505050565b61186a848484611452565b61187684848484611b7a565b610f9a576040517f08c379a000000000000000000000000000000000000000000000000000000000815260040161059c90612782565b6060816118ed575060408051808201909152600181527f300000000000000000000000000000000000000000000000000000000000000060208201526104a2565b8160005b811561190557600101600a820491506118f1565b60608167ffffffffffffffff8111801561191e57600080fd5b506040519080825280601f01601f191660200182016040528015611949576020820181803683370190505b5085935090507fffffffffffffffffffffffffffffffffffffffffffffffffffffffffffffffff82015b83156119d057600a840660300160f81b8282806001900393508151811061199657fe5b60200101907effffffffffffffffffffffffffffffffffffffffffffffffffffffffffffff1916908160001a905350600a84049350611973565b50949350505050565b60006107848383611ce7565b60006107848383611cff565b60006107848383611de3565b6000611855848473ffffffffffffffffffffffffffffffffffffffff8516611e2d565b81546000908210611a5d576040517f08c379a000000000000000000000000000000000000000000000000000000000815260040161059c90612725565b826000018281548110611a6c57fe5b9060005260206000200154905092915050565b60006107848383611ec4565b815460009081908310611aca576040517f08c379a000000000000000000000000000000000000000000000000000000000815260040161059c90612a1e565b6000846000018481548110611adb57fe5b906000526020600020906002020190508060000154816001015492509250509250929050565b60008281526001840160205260408120548281611b4b576040517f08c379a000000000000000000000000000000000000000000000000000000000815260040161059c9190612712565b50846000016001820381548110611b5e57fe5b9060005260206000209060020201600101549150509392505050565b6000611b9b8473ffffffffffffffffffffffffffffffffffffffff16611fd4565b611ba757506001610875565b6060611c7f7f150b7a0200000000000000000000000000000000000000000000000000000000611bd56112d8565b888787604051602401611beb949392919061268a565b604051602081830303815290604052907bffffffffffffffffffffffffffffffffffffffffffffffffffffffff19166020820180517bffffffffffffffffffffffffffffffffffffffffffffffffffffffff8381831617835250505050604051806060016040528060328152602001612de56032913973ffffffffffffffffffffffffffffffffffffffff88169190611fda565b9050600081806020019051810190611c97919061257f565b7fffffffff00000000000000000000000000000000000000000000000000000000167f150b7a02000000000000000000000000000000000000000000000000000000001492505050949350505050565b60009081526001919091016020526040902054151590565b60008181526001830160205260408120548015611dd95783547fffffffffffffffffffffffffffffffffffffffffffffffffffffffffffffffff8083019190810190600090879083908110611d5057fe5b9060005260206000200154905080876000018481548110611d6d57fe5b600091825260208083209091019290925582815260018981019092526040902090840190558654879080611d9d57fe5b60019003818190600052602060002001600090559055866001016000878152602001908152602001600020600090556001945050505050610787565b6000915050610787565b6000611def8383611ce7565b611e2557508154600181810184556000848152602080822090930184905584548482528286019093526040902091909155610787565b506000610787565b600082815260018401602052604081205480611e92575050604080518082018252838152602080820184815286546001818101895560008981528481209551600290930290950191825591519082015586548684528188019092529290912055611858565b82856000016001830381548110611ea557fe5b9060005260206000209060020201600101819055506000915050611858565b60008181526001830160205260408120548015611dd95783547fffffffffffffffffffffffffffffffffffffffffffffffffffffffffffffffff8083019190810190600090879083908110611f1557fe5b9060005260206000209060020201905080876000018481548110611f3557fe5b600091825260208083208454600290930201918255600193840154918401919091558354825289830190526040902090840190558654879080611f7457fe5b6000828152602080822060027fffffffffffffffffffffffffffffffffffffffffffffffffffffffffffffffff90940193840201828155600190810183905592909355888152898201909252604082209190915594506107879350505050565b3b151590565b6060611855848460008585611fee85611fd4565b612024576040517f08c379a000000000000000000000000000000000000000000000000000000000815260040161059c90612cb6565b600060608673ffffffffffffffffffffffffffffffffffffffff16858760405161204e919061261e565b60006040518083038185875af1925050503d806000811461208b576040519150601f19603f3d011682016040523d82523d6000602084013e612090565b606091505b50915091506120a08282866120ab565b979650505050505050565b606083156120ba575081611858565b8251156120ca5782518084602001fd5b816040517f08c379a000000000000000000000000000000000000000000000000000000000815260040161059c9190612712565b6001830191839082156121815791602002820160005b8382111561215257835183826101000a81548160ff021916908360ff1602179055509260200192600101602081600001049283019260010302612114565b801561217f5782816101000a81549060ff0219169055600101602081600001049283019260010302612152565b505b5061218d9291506121f3565b5090565b60405180608001604052806004906020820280368337509192915050565b50805460018160011615610100020316600290046000825580601f106121d55750610914565b601f016020900490600052602060002090810190610914919061222a565b5b8082111561218d5780547fffffffffffffffffffffffffffffffffffffffffffffffffffffffffffffff001681556001016121f4565b5b8082111561218d576000815560010161222b565b803573ffffffffffffffffffffffffffffffffffffffff8116811461078757600080fd5b803560ff8116811461078757600080fd5b600060208284031215612285578081fd5b610784838361223f565b600080604083850312156122a1578081fd5b6122ab848461223f565b91506122ba846020850161223f565b90509250929050565b6000806000606084860312156122d7578081fd5b83356122e281612d94565b925060208401356122f281612d94565b929592945050506040919091013590565b60008060008060808587031215612318578081fd5b612322868661223f565b935060206123328782880161223f565b935060408601359250606086013567ffffffffffffffff80821115612355578384fd5b818801915088601f830112612368578384fd5b813581811115612376578485fd5b6123a6847fffffffffffffffffffffffffffffffffffffffffffffffffffffffffffffffe0601f84011601612d04565b915080825289848285010111156123bb578485fd5b8084840185840137810190920192909252939692955090935050565b60008060008060e085870312156123ec578384fd5b84356123f781612d94565b93506020603f86018713612409578384fd5b600461241c61241782612d4b565b612d04565b8083890160a08a018b811115612430578889fd5b885b85811015612456576124448d84612263565b85529386019391860191600101612432565b50989b919a505096359760c001359695505050505050565b60008060408385031215612480578182fd5b61248a848461223f565b91506020830135801515811461249e578182fd5b809150509250929050565b600080604083850312156124bb578182fd5b6124c5848461223f565b946020939093013593505050565b600060208083850312156124e5578182fd5b823567ffffffffffffffff8111156124fb578283fd5b8301601f8101851361250b578283fd5b803561251961241782612d2b565b8181528381019083850185840285018601891015612535578687fd5b8694505b83851015612557578035835260019490940193918501918501612539565b50979650505050505050565b600060208284031215612574578081fd5b813561185881612db6565b600060208284031215612590578081fd5b815161185881612db6565b6000602082840312156125ac578081fd5b5035919050565b600080604083850312156125c5578182fd5b50508035926020909101359150565b600081518084526125ec816020860160208601612d68565b601f017fffffffffffffffffffffffffffffffffffffffffffffffffffffffffffffffe0169290920160200192915050565b60008251612630818460208701612d68565b9190910192915050565b6000835161264c818460208801612d68565b835190830190612660818360208801612d68565b01949350505050565b73ffffffffffffffffffffffffffffffffffffffff91909116815260200190565b600073ffffffffffffffffffffffffffffffffffffffff8087168352808616602084015250836040830152608060608301526126c960808301846125d4565b9695505050505050565b60808101818360005b60048110156126fe57815160ff168352602092830192909101906001016126dc565b50505092915050565b901515815260200190565b60006020825261078460208301846125d4565b60208082526022908201527f456e756d657261626c655365743a20696e646578206f7574206f6620626f756e60408201527f6473000000000000000000000000000000000000000000000000000000000000606082015260800190565b60208082526032908201527f4552433732313a207472616e7366657220746f206e6f6e20455243373231526560408201527f63656976657220696d706c656d656e7465720000000000000000000000000000606082015260800190565b60208082526026908201527f4f776e61626c653a206e6577206f776e657220697320746865207a65726f206160408201527f6464726573730000000000000000000000000000000000000000000000000000606082015260800190565b6020808252601c908201527f4552433732313a20746f6b656e20616c7265616479206d696e74656400000000604082015260600190565b60208082526024908201527f4552433732313a207472616e7366657220746f20746865207a65726f2061646460408201527f7265737300000000000000000000000000000000000000000000000000000000606082015260800190565b60208082526019908201527f4552433732313a20617070726f766520746f2063616c6c657200000000000000604082015260600190565b6020808252602c908201527f4552433732313a206f70657261746f7220717565727920666f72206e6f6e657860408201527f697374656e7420746f6b656e0000000000000000000000000000000000000000606082015260800190565b60208082526038908201527f4552433732313a20617070726f76652063616c6c6572206973206e6f74206f7760408201527f6e6572206e6f7220617070726f76656420666f7220616c6c0000000000000000606082015260800190565b6020808252602a908201527f4552433732313a2062616c616e636520717565727920666f7220746865207a6560408201527f726f206164647265737300000000000000000000000000000000000000000000606082015260800190565b60208082526022908201527f456e756d657261626c654d61703a20696e646578206f7574206f6620626f756e60408201527f6473000000000000000000000000000000000000000000000000000000000000606082015260800190565b6020808252818101527f4552433732313a206d696e7420746f20746865207a65726f2061646472657373604082015260600190565b6020808252602c908201527f4552433732313a20617070726f76656420717565727920666f72206e6f6e657860408201527f697374656e7420746f6b656e0000000000000000000000000000000000000000606082015260800190565b6020808252818101527f4f776e61626c653a2063616c6c6572206973206e6f7420746865206f776e6572604082015260600190565b60208082526029908201527f4552433732313a207472616e73666572206f6620746f6b656e2074686174206960408201527f73206e6f74206f776e0000000000000000000000000000000000000000000000606082015260800190565b6020808252602f908201527f4552433732314d657461646174613a2055524920717565727920666f72206e6f60408201527f6e6578697374656e7420746f6b656e0000000000000000000000000000000000606082015260800190565b60208082526021908201527f4552433732313a20617070726f76616c20746f2063757272656e74206f776e6560408201527f7200000000000000000000000000000000000000000000000000000000000000606082015260800190565b60208082526031908201527f4552433732313a207472616e736665722063616c6c6572206973206e6f74206f60408201527f776e6572206e6f7220617070726f766564000000000000000000000000000000606082015260800190565b6020808252601d908201527f416464726573733a2063616c6c20746f206e6f6e2d636f6e7472616374000000604082015260600190565b90815260200190565b60ff91909116815260200190565b60405181810167ffffffffffffffff81118282101715612d2357600080fd5b604052919050565b600067ffffffffffffffff821115612d41578081fd5b5060209081020190565b600067ffffffffffffffff821115612d61578081fd5b5060200290565b60005b83811015612d83578181015183820152602001612d6b565b83811115610f9a5750506000910152565b73ffffffffffffffffffffffffffffffffffffffff8116811461091457600080fd5b7fffffffff000000000000000000000000000000000000000000000000000000008116811461091457600080fdfe4552433732313a207472616e7366657220746f206e6f6e20455243373231526563656976657220696d706c656d656e7465724552433732313a206f776e657220717565727920666f72206e6f6e6578697374656e7420746f6b656ea26469706673582212205388476b35539fe1415ee47e070cdf3b37419141e54ad8140d6aa5e8e14736ae64736f6c634300060c0033",
  "immutableReferences": {},
  "source": "pragma solidity 0.6.12;\npragma experimental ABIEncoderV2;\n\nimport \"@openzeppelin/contracts/token/ERC721/ERC721.sol\";\nimport \"@openzeppelin/contracts/utils/Counters.sol\";\nimport \"@openzeppelin/contracts/access/Ownable.sol\";\n\ncontract LotteryNFT is ERC721, Ownable {\n    using Counters for Counters.Counter;\n    Counters.Counter private _tokenIds;\n\n    mapping (uint256 => uint8[4]) public lotteryInfo;\n    mapping (uint256 => uint256) public lotteryAmount;\n    mapping (uint256 => uint256) public issueIndex;\n    mapping (uint256 => bool) public claimInfo;\n\n    constructor() public ERC721(\"Lottery Ticket by pbears.finance\", \"TICKET\") {}\n\n    function newLotteryItem(address player, uint8[4] memory _lotteryNumbers, uint256 _amount, uint256 _issueIndex)\n        public onlyOwner\n        returns (uint256)\n    {\n        _tokenIds.increment();\n\n        uint256 newItemId = _tokenIds.current();\n        _mint(player, newItemId);\n        lotteryInfo[newItemId] = _lotteryNumbers;\n        lotteryAmount[newItemId] = _amount;\n        issueIndex[newItemId] = _issueIndex;\n        // claimInfo[newItemId] = false; default is false here\n        // _setTokenURI(newItemId, tokenURI);\n\n        return newItemId;\n    }\n\n    function getLotteryNumbers(uint256 tokenId) external view returns (uint8[4] memory) {\n        return lotteryInfo[tokenId];\n    }\n    function getLotteryAmount(uint256 tokenId) external view returns (uint256) {\n        return lotteryAmount[tokenId];\n    }\n    function getLotteryIssueIndex(uint256 tokenId) external view returns (uint256) {\n        return issueIndex[tokenId];\n    }\n    function claimReward(uint256 tokenId) external onlyOwner {\n        claimInfo[tokenId] = true;\n    }\n    function multiClaimReward(uint256[] memory _tokenIds) external onlyOwner {\n        for (uint i = 0; i < _tokenIds.length; i++) {\n            claimInfo[_tokenIds[i]] = true;\n        }\n    }\n    function burn(uint256 tokenId) external onlyOwner {\n        _burn(tokenId);\n    }\n    function getClaimStatus(uint256 tokenId) external view returns (bool) {\n        return claimInfo[tokenId];\n    }\n}\n",
  "sourcePath": "/Users/rostyslav/Desktop/kitty/goose/lottery-contract/contracts/LotteryNFT.sol",
  "compiler": {
    "name": "solc",
    "version": "0.6.12+commit.27d51765.Emscripten.clang"
  },
  "schemaVersion": "3.3.4",
  "updatedAt": "2021-03-03T12:08:06.354Z",
  "networkType": "ethereum",
  "devdoc": {
    "kind": "dev",
    "methods": {
      "approve(address,uint256)": {
        "details": "See {IERC721-approve}."
      },
      "balanceOf(address)": {
        "details": "See {IERC721-balanceOf}."
      },
      "baseURI()": {
        "details": "Returns the base URI set via {_setBaseURI}. This will be automatically added as a prefix in {tokenURI} to each token's URI, or to the token ID if no specific URI is set for that token ID."
      },
      "getApproved(uint256)": {
        "details": "See {IERC721-getApproved}."
      },
      "isApprovedForAll(address,address)": {
        "details": "See {IERC721-isApprovedForAll}."
      },
      "name()": {
        "details": "See {IERC721Metadata-name}."
      },
      "owner()": {
        "details": "Returns the address of the current owner."
      },
      "ownerOf(uint256)": {
        "details": "See {IERC721-ownerOf}."
      },
      "renounceOwnership()": {
        "details": "Leaves the contract without owner. It will not be possible to call `onlyOwner` functions anymore. Can only be called by the current owner. NOTE: Renouncing ownership will leave the contract without an owner, thereby removing any functionality that is only available to the owner."
      },
      "safeTransferFrom(address,address,uint256)": {
        "details": "See {IERC721-safeTransferFrom}."
      },
      "safeTransferFrom(address,address,uint256,bytes)": {
        "details": "See {IERC721-safeTransferFrom}."
      },
      "setApprovalForAll(address,bool)": {
        "details": "See {IERC721-setApprovalForAll}."
      },
      "supportsInterface(bytes4)": {
        "details": "See {IERC165-supportsInterface}. Time complexity O(1), guaranteed to always use less than 30 000 gas."
      },
      "symbol()": {
        "details": "See {IERC721Metadata-symbol}."
      },
      "tokenByIndex(uint256)": {
        "details": "See {IERC721Enumerable-tokenByIndex}."
      },
      "tokenOfOwnerByIndex(address,uint256)": {
        "details": "See {IERC721Enumerable-tokenOfOwnerByIndex}."
      },
      "tokenURI(uint256)": {
        "details": "See {IERC721Metadata-tokenURI}."
      },
      "totalSupply()": {
        "details": "See {IERC721Enumerable-totalSupply}."
      },
      "transferFrom(address,address,uint256)": {
        "details": "See {IERC721-transferFrom}."
      },
      "transferOwnership(address)": {
        "details": "Transfers ownership of the contract to a new account (`newOwner`). Can only be called by the current owner."
      }
    },
    "version": 1
  },
  "userdoc": {
    "kind": "user",
    "methods": {},
    "version": 1
  }
}